{
  "_format": "hh-sol-artifact-1",
  "contractName": "BookingContract",
  "sourceName": "contracts/BookingContract.sol",
  "abi": [
    {
      "inputs": [],
      "stateMutability": "nonpayable",
      "type": "constructor"
    },
    {
      "anonymous": false,
      "inputs": [
        {
          "indexed": true,
          "internalType": "address",
          "name": "owner",
          "type": "address"
        },
        {
          "indexed": true,
          "internalType": "address",
          "name": "approved",
          "type": "address"
        },
        {
          "indexed": true,
          "internalType": "uint256",
          "name": "tokenId",
          "type": "uint256"
        }
      ],
      "name": "Approval",
      "type": "event"
    },
    {
      "anonymous": false,
      "inputs": [
        {
          "indexed": true,
          "internalType": "address",
          "name": "owner",
          "type": "address"
        },
        {
          "indexed": true,
          "internalType": "address",
          "name": "operator",
          "type": "address"
        },
        {
          "indexed": false,
          "internalType": "bool",
          "name": "approved",
          "type": "bool"
        }
      ],
      "name": "ApprovalForAll",
      "type": "event"
    },
    {
      "anonymous": false,
      "inputs": [
        {
          "indexed": false,
          "internalType": "uint256",
          "name": "_fromTokenId",
          "type": "uint256"
        },
        {
          "indexed": false,
          "internalType": "uint256",
          "name": "_toTokenId",
          "type": "uint256"
        }
      ],
      "name": "BatchMetadataUpdate",
      "type": "event"
    },
    {
      "anonymous": false,
      "inputs": [
        {
          "indexed": true,
          "internalType": "uint256",
          "name": "bookingId",
          "type": "uint256"
        },
        {
          "indexed": true,
          "internalType": "address",
          "name": "user",
          "type": "address"
        },
        {
          "indexed": false,
          "internalType": "enum BookingContract.BookingStatus",
          "name": "status",
          "type": "uint8"
        }
      ],
      "name": "BookingCancelled",
      "type": "event"
    },
    {
      "anonymous": false,
      "inputs": [
        {
          "indexed": true,
          "internalType": "uint256",
          "name": "bookingId",
          "type": "uint256"
        },
        {
          "indexed": true,
          "internalType": "address",
          "name": "user",
          "type": "address"
        },
        {
          "indexed": false,
          "internalType": "enum BookingContract.BookingStatus",
          "name": "status",
          "type": "uint8"
        }
      ],
      "name": "BookingCompleted",
      "type": "event"
    },
    {
      "anonymous": false,
      "inputs": [
        {
          "indexed": true,
          "internalType": "uint256",
          "name": "bookingId",
          "type": "uint256"
        },
        {
          "indexed": true,
          "internalType": "address",
          "name": "user",
          "type": "address"
        },
        {
          "indexed": false,
          "internalType": "uint256",
          "name": "propertyId",
          "type": "uint256"
        },
        {
          "indexed": false,
          "internalType": "uint256",
          "name": "startDate",
          "type": "uint256"
        },
        {
          "indexed": false,
          "internalType": "uint256",
          "name": "endDate",
          "type": "uint256"
        },
        {
          "indexed": false,
          "internalType": "uint256",
          "name": "amount",
          "type": "uint256"
        },
        {
          "indexed": false,
          "internalType": "enum BookingContract.BookingStatus",
          "name": "status",
          "type": "uint8"
        }
      ],
      "name": "BookingCreated",
      "type": "event"
    },
    {
      "anonymous": false,
      "inputs": [
        {
          "indexed": false,
          "internalType": "uint256",
          "name": "_tokenId",
          "type": "uint256"
        }
      ],
      "name": "MetadataUpdate",
      "type": "event"
    },
    {
      "anonymous": false,
      "inputs": [
        {
          "indexed": true,
          "internalType": "uint256",
          "name": "bookingId",
          "type": "uint256"
        },
        {
          "indexed": true,
          "internalType": "uint256",
          "name": "tokenId",
          "type": "uint256"
        },
        {
          "indexed": true,
          "internalType": "address",
          "name": "to",
          "type": "address"
        }
      ],
      "name": "NFTMinted",
      "type": "event"
    },
    {
      "anonymous": false,
      "inputs": [
        {
          "indexed": true,
          "internalType": "address",
          "name": "previousOwner",
          "type": "address"
        },
        {
          "indexed": true,
          "internalType": "address",
          "name": "newOwner",
          "type": "address"
        }
      ],
      "name": "OwnershipTransferred",
      "type": "event"
    },
    {
      "anonymous": false,
      "inputs": [
        {
          "indexed": true,
          "internalType": "uint256",
          "name": "propertyId",
          "type": "uint256"
        },
        {
          "indexed": false,
          "internalType": "uint256",
          "name": "price",
          "type": "uint256"
        }
      ],
      "name": "PropertyAdded",
      "type": "event"
    },
    {
      "anonymous": false,
      "inputs": [
        {
          "indexed": true,
          "internalType": "address",
          "name": "from",
          "type": "address"
        },
        {
          "indexed": true,
          "internalType": "address",
          "name": "to",
          "type": "address"
        },
        {
          "indexed": true,
          "internalType": "uint256",
          "name": "tokenId",
          "type": "uint256"
        }
      ],
      "name": "Transfer",
      "type": "event"
    },
    {
      "inputs": [
        {
          "internalType": "uint256",
          "name": "propertyId",
          "type": "uint256"
        }
      ],
      "name": "activateProperty",
      "outputs": [],
      "stateMutability": "nonpayable",
      "type": "function"
    },
    {
      "inputs": [
        {
          "internalType": "uint256",
          "name": "propertyId",
          "type": "uint256"
        },
        {
          "internalType": "uint256",
          "name": "price",
          "type": "uint256"
        }
      ],
      "name": "addProperty",
      "outputs": [],
      "stateMutability": "nonpayable",
      "type": "function"
    },
    {
      "inputs": [
        {
          "internalType": "address",
          "name": "to",
          "type": "address"
        },
        {
          "internalType": "uint256",
          "name": "tokenId",
          "type": "uint256"
        }
      ],
      "name": "approve",
      "outputs": [],
      "stateMutability": "nonpayable",
      "type": "function"
    },
    {
      "inputs": [
        {
          "internalType": "address",
          "name": "owner",
          "type": "address"
        }
      ],
      "name": "balanceOf",
      "outputs": [
        {
          "internalType": "uint256",
          "name": "",
          "type": "uint256"
        }
      ],
      "stateMutability": "view",
      "type": "function"
    },
    {
      "inputs": [
        {
          "internalType": "uint256",
          "name": "propertyId",
          "type": "uint256"
        },
        {
          "internalType": "uint256",
          "name": "startDate",
          "type": "uint256"
        },
        {
          "internalType": "uint256",
          "name": "endDate",
          "type": "uint256"
        },
        {
          "internalType": "uint256",
          "name": "amount",
          "type": "uint256"
        }
      ],
      "name": "book",
      "outputs": [],
      "stateMutability": "payable",
      "type": "function"
    },
    {
      "inputs": [],
      "name": "bookingCount",
      "outputs": [
        {
          "internalType": "uint256",
          "name": "",
          "type": "uint256"
        }
      ],
      "stateMutability": "view",
      "type": "function"
    },
    {
      "inputs": [
        {
          "internalType": "uint256",
          "name": "",
          "type": "uint256"
        }
      ],
      "name": "bookingPayments",
      "outputs": [
        {
          "internalType": "uint256",
          "name": "",
          "type": "uint256"
        }
      ],
      "stateMutability": "view",
      "type": "function"
    },
    {
      "inputs": [
        {
          "internalType": "uint256",
          "name": "",
          "type": "uint256"
        }
      ],
      "name": "bookingToNFT",
      "outputs": [
        {
          "internalType": "uint256",
          "name": "",
          "type": "uint256"
        }
      ],
      "stateMutability": "view",
      "type": "function"
    },
    {
      "inputs": [
        {
          "internalType": "uint256",
          "name": "",
          "type": "uint256"
        }
      ],
      "name": "bookings",
      "outputs": [
        {
          "internalType": "address",
          "name": "user",
          "type": "address"
        },
        {
          "internalType": "uint256",
          "name": "propertyId",
          "type": "uint256"
        },
        {
          "internalType": "uint256",
          "name": "startDate",
          "type": "uint256"
        },
        {
          "internalType": "uint256",
          "name": "endDate",
          "type": "uint256"
        },
        {
          "internalType": "uint256",
          "name": "amount",
          "type": "uint256"
        },
        {
          "internalType": "enum BookingContract.BookingStatus",
          "name": "status",
          "type": "uint8"
        }
      ],
      "stateMutability": "view",
      "type": "function"
    },
    {
      "inputs": [
        {
          "internalType": "uint256",
          "name": "bookingId",
          "type": "uint256"
        }
      ],
      "name": "cancelBooking",
      "outputs": [],
      "stateMutability": "nonpayable",
      "type": "function"
    },
    {
      "inputs": [
        {
          "internalType": "uint256",
          "name": "bookingId",
          "type": "uint256"
        }
      ],
      "name": "completeBooking",
      "outputs": [],
      "stateMutability": "nonpayable",
      "type": "function"
    },
    {
      "inputs": [
        {
          "internalType": "uint256",
          "name": "propertyId",
          "type": "uint256"
        }
      ],
      "name": "deactivateProperty",
      "outputs": [],
      "stateMutability": "nonpayable",
      "type": "function"
    },
    {
      "inputs": [
        {
          "internalType": "uint256",
          "name": "tokenId",
          "type": "uint256"
        }
      ],
      "name": "getApproved",
      "outputs": [
        {
          "internalType": "address",
          "name": "",
          "type": "address"
        }
      ],
      "stateMutability": "view",
      "type": "function"
    },
    {
      "inputs": [
        {
          "internalType": "uint256",
          "name": "bookingId",
          "type": "uint256"
        }
      ],
      "name": "getBooking",
      "outputs": [
        {
          "components": [
            {
              "internalType": "address",
              "name": "user",
              "type": "address"
            },
            {
              "internalType": "uint256",
              "name": "propertyId",
              "type": "uint256"
            },
            {
              "internalType": "uint256",
              "name": "startDate",
              "type": "uint256"
            },
            {
              "internalType": "uint256",
              "name": "endDate",
              "type": "uint256"
            },
            {
              "internalType": "uint256",
              "name": "amount",
              "type": "uint256"
            },
            {
              "internalType": "enum BookingContract.BookingStatus",
              "name": "status",
              "type": "uint8"
            }
          ],
          "internalType": "struct BookingContract.Booking",
          "name": "",
          "type": "tuple"
        }
      ],
      "stateMutability": "view",
      "type": "function"
    },
    {
      "inputs": [
        {
          "internalType": "address",
          "name": "owner",
          "type": "address"
        },
        {
          "internalType": "address",
          "name": "operator",
          "type": "address"
        }
      ],
      "name": "isApprovedForAll",
      "outputs": [
        {
          "internalType": "bool",
          "name": "",
          "type": "bool"
        }
      ],
      "stateMutability": "view",
      "type": "function"
    },
    {
      "inputs": [
        {
          "internalType": "address",
          "name": "to",
          "type": "address"
        },
        {
          "internalType": "uint256",
          "name": "bookingId",
          "type": "uint256"
        }
      ],
      "name": "mintBookingNFT",
      "outputs": [],
      "stateMutability": "nonpayable",
      "type": "function"
    },
    {
      "inputs": [],
      "name": "name",
      "outputs": [
        {
          "internalType": "string",
          "name": "",
          "type": "string"
        }
      ],
      "stateMutability": "view",
      "type": "function"
    },
    {
      "inputs": [],
      "name": "nextTokenId",
      "outputs": [
        {
          "internalType": "uint256",
          "name": "",
          "type": "uint256"
        }
      ],
      "stateMutability": "view",
      "type": "function"
    },
    {
      "inputs": [
        {
          "internalType": "uint256",
          "name": "",
          "type": "uint256"
        }
      ],
      "name": "nftToBooking",
      "outputs": [
        {
          "internalType": "uint256",
          "name": "",
          "type": "uint256"
        }
      ],
      "stateMutability": "view",
      "type": "function"
    },
    {
      "inputs": [
        {
          "internalType": "uint256",
          "name": "propertyId",
          "type": "uint256"
        },
        {
          "internalType": "uint256",
          "name": "startDate",
          "type": "uint256"
        },
        {
          "internalType": "uint256",
          "name": "endDate",
          "type": "uint256"
        }
      ],
      "name": "overlapBooking",
      "outputs": [
        {
          "internalType": "bool",
          "name": "",
          "type": "bool"
        }
      ],
      "stateMutability": "view",
      "type": "function"
    },
    {
      "inputs": [],
      "name": "owner",
      "outputs": [
        {
          "internalType": "address",
          "name": "",
          "type": "address"
        }
      ],
      "stateMutability": "view",
      "type": "function"
    },
    {
      "inputs": [
        {
          "internalType": "uint256",
          "name": "tokenId",
          "type": "uint256"
        }
      ],
      "name": "ownerOf",
      "outputs": [
        {
          "internalType": "address",
          "name": "",
          "type": "address"
        }
      ],
      "stateMutability": "view",
      "type": "function"
    },
    {
      "inputs": [
        {
          "internalType": "uint256",
          "name": "",
          "type": "uint256"
        }
      ],
      "name": "propertyActive",
      "outputs": [
        {
          "internalType": "bool",
          "name": "",
          "type": "bool"
        }
      ],
      "stateMutability": "view",
      "type": "function"
    },
    {
      "inputs": [
        {
          "internalType": "uint256",
          "name": "",
          "type": "uint256"
        },
        {
          "internalType": "uint256",
          "name": "",
          "type": "uint256"
        }
      ],
      "name": "propertyDateBooked",
      "outputs": [
        {
          "internalType": "bool",
          "name": "",
          "type": "bool"
        }
      ],
      "stateMutability": "view",
      "type": "function"
    },
    {
      "inputs": [
        {
          "internalType": "uint256",
          "name": "propertyId",
          "type": "uint256"
        }
      ],
      "name": "propertyExists",
      "outputs": [
        {
          "internalType": "bool",
          "name": "",
          "type": "bool"
        }
      ],
      "stateMutability": "view",
      "type": "function"
    },
    {
      "inputs": [
        {
          "internalType": "uint256",
          "name": "",
          "type": "uint256"
        }
      ],
      "name": "propertyPrice",
      "outputs": [
        {
          "internalType": "uint256",
          "name": "",
          "type": "uint256"
        }
      ],
      "stateMutability": "view",
      "type": "function"
    },
    {
      "inputs": [],
      "name": "renounceOwnership",
      "outputs": [],
      "stateMutability": "nonpayable",
      "type": "function"
    },
    {
      "inputs": [
        {
          "internalType": "address",
          "name": "from",
          "type": "address"
        },
        {
          "internalType": "address",
          "name": "to",
          "type": "address"
        },
        {
          "internalType": "uint256",
          "name": "tokenId",
          "type": "uint256"
        }
      ],
      "name": "safeTransferFrom",
      "outputs": [],
      "stateMutability": "nonpayable",
      "type": "function"
    },
    {
      "inputs": [
        {
          "internalType": "address",
          "name": "from",
          "type": "address"
        },
        {
          "internalType": "address",
          "name": "to",
          "type": "address"
        },
        {
          "internalType": "uint256",
          "name": "tokenId",
          "type": "uint256"
        },
        {
          "internalType": "bytes",
          "name": "data",
          "type": "bytes"
        }
      ],
      "name": "safeTransferFrom",
      "outputs": [],
      "stateMutability": "nonpayable",
      "type": "function"
    },
    {
      "inputs": [
        {
          "internalType": "address",
          "name": "operator",
          "type": "address"
        },
        {
          "internalType": "bool",
          "name": "approved",
          "type": "bool"
        }
      ],
      "name": "setApprovalForAll",
      "outputs": [],
      "stateMutability": "nonpayable",
      "type": "function"
    },
    {
      "inputs": [
        {
          "internalType": "uint256",
          "name": "propertyId",
          "type": "uint256"
        },
        {
          "internalType": "uint256",
          "name": "price",
          "type": "uint256"
        }
      ],
      "name": "setPropertyPrice",
      "outputs": [],
      "stateMutability": "nonpayable",
      "type": "function"
    },
    {
      "inputs": [
        {
          "internalType": "bytes4",
          "name": "interfaceId",
          "type": "bytes4"
        }
      ],
      "name": "supportsInterface",
      "outputs": [
        {
          "internalType": "bool",
          "name": "",
          "type": "bool"
        }
      ],
      "stateMutability": "view",
      "type": "function"
    },
    {
      "inputs": [],
      "name": "symbol",
      "outputs": [
        {
          "internalType": "string",
          "name": "",
          "type": "string"
        }
      ],
      "stateMutability": "view",
      "type": "function"
    },
    {
      "inputs": [
        {
          "internalType": "uint256",
          "name": "tokenId",
          "type": "uint256"
        }
      ],
      "name": "tokenURI",
      "outputs": [
        {
          "internalType": "string",
          "name": "",
          "type": "string"
        }
      ],
      "stateMutability": "view",
      "type": "function"
    },
    {
      "inputs": [
        {
          "internalType": "address",
          "name": "from",
          "type": "address"
        },
        {
          "internalType": "address",
          "name": "to",
          "type": "address"
        },
        {
          "internalType": "uint256",
          "name": "tokenId",
          "type": "uint256"
        }
      ],
      "name": "transferFrom",
      "outputs": [],
      "stateMutability": "nonpayable",
      "type": "function"
    },
    {
      "inputs": [
        {
          "internalType": "address",
          "name": "newOwner",
          "type": "address"
        }
      ],
      "name": "transferOwnership",
      "outputs": [],
      "stateMutability": "nonpayable",
      "type": "function"
    },
    {
      "inputs": [],
      "name": "withdraw",
      "outputs": [],
      "stateMutability": "nonpayable",
      "type": "function"
    }
  ],
  "bytecode": "0x60806040523480156200001157600080fd5b506040518060400160405280601181526020017f5265616c457374617465426f6f6b696e670000000000000000000000000000008152506040518060400160405280600381526020017f524542000000000000000000000000000000000000000000000000000000000081525081600090816200008f91906200042a565b508060019081620000a191906200042a565b505050620000c4620000b8620000e260201b60201c565b620000ea60201b60201c565b600160088190555060016009819055506001600a8190555062000511565b600033905090565b6000600760009054906101000a900473ffffffffffffffffffffffffffffffffffffffff16905081600760006101000a81548173ffffffffffffffffffffffffffffffffffffffff021916908373ffffffffffffffffffffffffffffffffffffffff1602179055508173ffffffffffffffffffffffffffffffffffffffff168173ffffffffffffffffffffffffffffffffffffffff167f8be0079c531659141344cd1fd0a4f28419497f9722a3daafe3b4186f6b6457e060405160405180910390a35050565b600081519050919050565b7f4e487b7100000000000000000000000000000000000000000000000000000000600052604160045260246000fd5b7f4e487b7100000000000000000000000000000000000000000000000000000000600052602260045260246000fd5b600060028204905060018216806200023257607f821691505b602082108103620002485762000247620001ea565b5b50919050565b60008190508160005260206000209050919050565b60006020601f8301049050919050565b600082821b905092915050565b600060088302620002b27fffffffffffffffffffffffffffffffffffffffffffffffffffffffffffffffff8262000273565b620002be868362000273565b95508019841693508086168417925050509392505050565b6000819050919050565b6000819050919050565b60006200030b62000305620002ff84620002d6565b620002e0565b620002d6565b9050919050565b6000819050919050565b6200032783620002ea565b6200033f620003368262000312565b84845462000280565b825550505050565b600090565b6200035662000347565b620003638184846200031c565b505050565b5b818110156200038b576200037f6000826200034c565b60018101905062000369565b5050565b601f821115620003da57620003a4816200024e565b620003af8462000263565b81016020851015620003bf578190505b620003d7620003ce8562000263565b83018262000368565b50505b505050565b600082821c905092915050565b6000620003ff60001984600802620003df565b1980831691505092915050565b60006200041a8383620003ec565b9150826002028217905092915050565b6200043582620001b0565b67ffffffffffffffff811115620004515762000450620001bb565b5b6200045d825462000219565b6200046a8282856200038f565b600060209050601f831160018114620004a257600084156200048d578287015190505b6200049985826200040c565b86555062000509565b601f198416620004b2866200024e565b60005b82811015620004dc57848901518255600182019150602085019450602081019050620004b5565b86831015620004fc5784890151620004f8601f891682620003ec565b8355505b6001600288020188555050505b505050505050565b61576480620005216000396000f3fe60806040526004361061021a5760003560e01c806353a242d9116101235780637ca28bc6116100ab578063beb8354c1161006f578063beb8354c14610821578063c87b56dd1461084a578063d7a6478714610887578063e985e9c5146108c4578063f2fde38b146109015761021a565b80637ca28bc6146107505780638da5cb5b1461077957806395d89b41146107a4578063a22cb465146107cf578063b88d4fde146107f85761021a565b80636d759172116100f25780636d7591721461066957806370a0823114610694578063715018a6146106d157806375794a3c146106e85780637ab583e3146107135761021a565b806353a242d9146105aa5780636352211e146105d357806364b5d0a0146106105780636a5c841a1461062c5761021a565b806314050c5a116101a65780633ccfd60b116101755780633ccfd60b146104b3578063411411dd146104ca57806342842e0e146105075780634a164732146105305780634baad8011461056d5761021a565b806314050c5a146103e25780631a2b34311461041f5780631dab301e1461044857806323b872dd1461048a5761021a565b806306fdde03116101ed57806306fdde03146102ff578063081812fc1461032a5780630891a48f14610367578063095ea7b3146103905780630dca825e146103b95761021a565b806301ffc9a71461021f57806303b66f631461025c57806304d28d8d146102855780630642f89e146102c2575b600080fd5b34801561022b57600080fd5b50610246600480360381019061024191906134e4565b61092a565b604051610253919061352c565b60405180910390f35b34801561026857600080fd5b50610283600480360381019061027e919061357d565b61098b565b005b34801561029157600080fd5b506102ac60048036038101906102a791906135bd565b610aac565b6040516102b991906135f9565b60405180910390f35b3480156102ce57600080fd5b506102e960048036038101906102e4919061357d565b610ac4565b6040516102f6919061352c565b60405180910390f35b34801561030b57600080fd5b50610314610af3565b60405161032191906136a4565b60405180910390f35b34801561033657600080fd5b50610351600480360381019061034c91906135bd565b610b85565b60405161035e9190613707565b60405180910390f35b34801561037357600080fd5b5061038e600480360381019061038991906135bd565b610bcb565b005b34801561039c57600080fd5b506103b760048036038101906103b2919061374e565b610c58565b005b3480156103c557600080fd5b506103e060048036038101906103db91906135bd565b610d6f565b005b3480156103ee57600080fd5b50610409600480360381019061040491906135bd565b610f78565b60405161041691906135f9565b60405180910390f35b34801561042b57600080fd5b50610446600480360381019061044191906135bd565b610f90565b005b34801561045457600080fd5b5061046f600480360381019061046a91906135bd565b611188565b60405161048196959493929190613805565b60405180910390f35b34801561049657600080fd5b506104b160048036038101906104ac9190613866565b6111f1565b005b3480156104bf57600080fd5b506104c8611251565b005b3480156104d657600080fd5b506104f160048036038101906104ec91906138b9565b6112b9565b6040516104fe919061352c565b60405180910390f35b34801561051357600080fd5b5061052e60048036038101906105299190613866565b61132c565b005b34801561053c57600080fd5b50610557600480360381019061055291906135bd565b61134c565b604051610564919061352c565b60405180910390f35b34801561057957600080fd5b50610594600480360381019061058f91906135bd565b61136b565b6040516105a191906135f9565b60405180910390f35b3480156105b657600080fd5b506105d160048036038101906105cc919061374e565b611383565b005b3480156105df57600080fd5b506105fa60048036038101906105f591906135bd565b6114e8565b6040516106079190613707565b60405180910390f35b61062a6004803603810190610625919061390c565b61156e565b005b34801561063857600080fd5b50610653600480360381019061064e91906135bd565b6119f5565b6040516106609190613a1b565b60405180910390f35b34801561067557600080fd5b5061067e611adb565b60405161068b91906135f9565b60405180910390f35b3480156106a057600080fd5b506106bb60048036038101906106b69190613a36565b611af1565b6040516106c891906135f9565b60405180910390f35b3480156106dd57600080fd5b506106e6611ba8565b005b3480156106f457600080fd5b506106fd611bbc565b60405161070a91906135f9565b60405180910390f35b34801561071f57600080fd5b5061073a600480360381019061073591906135bd565b611bc6565b60405161074791906135f9565b60405180910390f35b34801561075c57600080fd5b50610777600480360381019061077291906135bd565b611bde565b005b34801561078557600080fd5b5061078e611c6b565b60405161079b9190613707565b60405180910390f35b3480156107b057600080fd5b506107b9611c95565b6040516107c691906136a4565b60405180910390f35b3480156107db57600080fd5b506107f660048036038101906107f19190613a8f565b611d27565b005b34801561080457600080fd5b5061081f600480360381019061081a9190613c04565b611d3d565b005b34801561082d57600080fd5b506108486004803603810190610843919061357d565b611d9f565b005b34801561085657600080fd5b50610871600480360381019061086c91906135bd565b611e19565b60405161087e91906136a4565b60405180910390f35b34801561089357600080fd5b506108ae60048036038101906108a991906135bd565b61225d565b6040516108bb919061352c565b60405180910390f35b3480156108d057600080fd5b506108eb60048036038101906108e69190613c87565b61227d565b6040516108f8919061352c565b60405180910390f35b34801561090d57600080fd5b5061092860048036038101906109239190613a36565b612311565b005b6000634906490660e01b7bffffffffffffffffffffffffffffffffffffffffffffffffffffffff1916827bffffffffffffffffffffffffffffffffffffffffffffffffffffffff19161480610984575061098382612394565b5b9050919050565b610993612476565b6000600b600084815260200190815260200160002054146109e9576040517f08c379a00000000000000000000000000000000000000000000000000000000081526004016109e090613d13565b60405180910390fd5b60008111610a2c576040517f08c379a0000000000000000000000000000000000000000000000000000000008152600401610a2390613d7f565b60405180910390fd5b80600b6000848152602001908152602001600020819055506001600c600084815260200190815260200160002060006101000a81548160ff021916908315150217905550817f8c12dc081f3afb7b8cf4b4eafe341721d78a8ab3e76d8e5adcaccd8ecefb3af382604051610aa091906135f9565b60405180910390a25050565b60116020528060005260406000206000915090505481565b600d6020528160005260406000206020528060005260406000206000915091509054906101000a900460ff1681565b606060008054610b0290613dce565b80601f0160208091040260200160405190810160405280929190818152602001828054610b2e90613dce565b8015610b7b5780601f10610b5057610100808354040283529160200191610b7b565b820191906000526020600020905b815481529060010190602001808311610b5e57829003601f168201915b5050505050905090565b6000610b90826124f4565b6004600083815260200190815260200160002060009054906101000a900473ffffffffffffffffffffffffffffffffffffffff169050919050565b610bd3612476565b6000600b60008381526020019081526020016000205411610c29576040517f08c379a0000000000000000000000000000000000000000000000000000000008152600401610c2090613e4b565b60405180910390fd5b6001600c600083815260200190815260200160002060006101000a81548160ff02191690831515021790555050565b6000610c63826114e8565b90508073ffffffffffffffffffffffffffffffffffffffff168373ffffffffffffffffffffffffffffffffffffffff1603610cd3576040517f08c379a0000000000000000000000000000000000000000000000000000000008152600401610cca90613edd565b60405180910390fd5b8073ffffffffffffffffffffffffffffffffffffffff16610cf261253f565b73ffffffffffffffffffffffffffffffffffffffff161480610d215750610d2081610d1b61253f565b61227d565b5b610d60576040517f08c379a0000000000000000000000000000000000000000000000000000000008152600401610d5790613f6f565b60405180910390fd5b610d6a8383612547565b505050565b610d77612600565b6000600e600083815260200190815260200160002090503373ffffffffffffffffffffffffffffffffffffffff168160000160009054906101000a900473ffffffffffffffffffffffffffffffffffffffff1673ffffffffffffffffffffffffffffffffffffffff1614610e20576040517f08c379a0000000000000000000000000000000000000000000000000000000008152600401610e1790613fdb565b60405180910390fd5b60006004811115610e3457610e3361378e565b5b8160050160009054906101000a900460ff166004811115610e5857610e5761378e565b5b1480610e99575060016004811115610e7357610e7261378e565b5b8160050160009054906101000a900460ff166004811115610e9757610e9661378e565b5b145b610ed8576040517f08c379a0000000000000000000000000000000000000000000000000000000008152600401610ecf90614047565b60405180910390fd5b60028160050160006101000a81548160ff02191690836004811115610f0057610eff61378e565b5b0217905550610f1c81600101548260020154836003015461264f565b3373ffffffffffffffffffffffffffffffffffffffff16827f05eeaada89ac9092b19c582864b6f75c4796ca38f2cd2fe43f1e002be8671c586002604051610f649190614067565b60405180910390a350610f756126b6565b50565b600b6020528060005260406000206000915090505481565b610f98612600565b6000600e600083815260200190815260200160002090503373ffffffffffffffffffffffffffffffffffffffff168160000160009054906101000a900473ffffffffffffffffffffffffffffffffffffffff1673ffffffffffffffffffffffffffffffffffffffff1614611041576040517f08c379a000000000000000000000000000000000000000000000000000000000815260040161103890613fdb565b60405180910390fd5b600160048111156110555761105461378e565b5b8160050160009054906101000a900460ff1660048111156110795761107861378e565b5b146110b9576040517f08c379a00000000000000000000000000000000000000000000000000000000081526004016110b0906140ce565b60405180910390fd5b806003015442116110ff576040517f08c379a00000000000000000000000000000000000000000000000000000000081526004016110f69061413a565b60405180910390fd5b60038160050160006101000a81548160ff021916908360048111156111275761112661378e565b5b02179055503373ffffffffffffffffffffffffffffffffffffffff16827fcc8d29aef62db1a3527761281a725fb4454ace0682e0b6ba76f68a700f05fc3c60036040516111749190614067565b60405180910390a3506111856126b6565b50565b600e6020528060005260406000206000915090508060000160009054906101000a900473ffffffffffffffffffffffffffffffffffffffff16908060010154908060020154908060030154908060040154908060050160009054906101000a900460ff16905086565b6112026111fc61253f565b826126c0565b611241576040517f08c379a0000000000000000000000000000000000000000000000000000000008152600401611238906141cc565b60405180910390fd5b61124c838383612755565b505050565b611259612476565b611261612600565b611269611c6b565b73ffffffffffffffffffffffffffffffffffffffff166108fc479081150290604051600060405180830381858888f193505050501580156112ae573d6000803e3d6000fd5b506112b76126b6565b565b6000808390505b8281101561131f57600d6000868152602001908152602001600020600082815260200190815260200160002060009054906101000a900460ff1615611309576001915050611325565b6201518081611318919061421b565b90506112c0565b50600090505b9392505050565b61134783838360405180602001604052806000815250611d3d565b505050565b600080600b600084815260200190815260200160002054119050919050565b60106020528060005260406000206000915090505481565b61138b612600565b3373ffffffffffffffffffffffffffffffffffffffff16600e600083815260200190815260200160002060000160009054906101000a900473ffffffffffffffffffffffffffffffffffffffff1673ffffffffffffffffffffffffffffffffffffffff161461142f576040517f08c379a000000000000000000000000000000000000000000000000000000000815260040161142690613fdb565b60405180910390fd5b6000600a60008154809291906114449061424f565b9190505590506114548382612a4e565b8060106000848152602001908152602001600020819055508160116000838152602001908152602001600020819055506114968161149183611e19565b612a6c565b8273ffffffffffffffffffffffffffffffffffffffff1681837ffca9437e237ca408a74cca23e3078fd1f6c700960dac7f09f8c6cf5177aefe1a60405160405180910390a4506114e46126b6565b5050565b6000806114f483612b10565b9050600073ffffffffffffffffffffffffffffffffffffffff168173ffffffffffffffffffffffffffffffffffffffff1603611565576040517f08c379a000000000000000000000000000000000000000000000000000000000815260040161155c906142e3565b60405180910390fd5b80915050919050565b611576612600565b4283116115b8576040517f08c379a00000000000000000000000000000000000000000000000000000000081526004016115af90614375565b60405180910390fd5b8282116115fa576040517f08c379a00000000000000000000000000000000000000000000000000000000081526004016115f190614407565b60405180910390fd5b6000600b60008681526020019081526020016000205411611650576040517f08c379a000000000000000000000000000000000000000000000000000000000815260040161164790613e4b565b60405180910390fd5b600c600085815260200190815260200160002060009054906101000a900460ff166116b0576040517f08c379a00000000000000000000000000000000000000000000000000000000081526004016116a790614473565b60405180910390fd5b6116bb8484846112b9565b156116fb576040517f08c379a00000000000000000000000000000000000000000000000000000000081526004016116f290614505565b60405180910390fd5b600b6000858152602001908152602001600020548114611750576040517f08c379a000000000000000000000000000000000000000000000000000000000815260040161174790614597565b60405180910390fd5b80341015611793576040517f08c379a000000000000000000000000000000000000000000000000000000000815260040161178a90614629565b60405180910390fd5b6000600960008154809291906117a89061424f565b91905055905034600f60008381526020019081526020016000208190555060008490505b83811015611827576001600d6000888152602001908152602001600020600083815260200190815260200160002060006101000a81548160ff0219169083151502179055506201518081611820919061421b565b90506117cc565b506040518060c001604052803373ffffffffffffffffffffffffffffffffffffffff1681526020018681526020018581526020018481526020018381526020016000600481111561187b5761187a61378e565b5b815250600e600083815260200190815260200160002060008201518160000160006101000a81548173ffffffffffffffffffffffffffffffffffffffff021916908373ffffffffffffffffffffffffffffffffffffffff1602179055506020820151816001015560408201518160020155606082015181600301556080820151816004015560a08201518160050160006101000a81548160ff0219169083600481111561192b5761192a61378e565b5b02179055509050508134111561198e573373ffffffffffffffffffffffffffffffffffffffff166108fc83346119619190614649565b9081150290604051600060405180830381858888f1935050505015801561198c573d6000803e3d6000fd5b505b3373ffffffffffffffffffffffffffffffffffffffff16817fc2e29aacd875702915a58c9cee9f7260328cfffddf7ea293a198e4912a70c7588787878760006040516119de95949392919061467d565b60405180910390a3506119ef6126b6565b50505050565b6119fd61341a565b600e60008381526020019081526020016000206040518060c00160405290816000820160009054906101000a900473ffffffffffffffffffffffffffffffffffffffff1673ffffffffffffffffffffffffffffffffffffffff1673ffffffffffffffffffffffffffffffffffffffff168152602001600182015481526020016002820154815260200160038201548152602001600482015481526020016005820160009054906101000a900460ff166004811115611abe57611abd61378e565b5b6004811115611ad057611acf61378e565b5b815250509050919050565b60006001600954611aec9190614649565b905090565b60008073ffffffffffffffffffffffffffffffffffffffff168273ffffffffffffffffffffffffffffffffffffffff1603611b61576040517f08c379a0000000000000000000000000000000000000000000000000000000008152600401611b5890614742565b60405180910390fd5b600360008373ffffffffffffffffffffffffffffffffffffffff1673ffffffffffffffffffffffffffffffffffffffff168152602001908152602001600020549050919050565b611bb0612476565b611bba6000612b4d565b565b6000600a54905090565b600f6020528060005260406000206000915090505481565b611be6612476565b6000600b60008381526020019081526020016000205411611c3c576040517f08c379a0000000000000000000000000000000000000000000000000000000008152600401611c3390613e4b565b60405180910390fd5b6000600c600083815260200190815260200160002060006101000a81548160ff02191690831515021790555050565b6000600760009054906101000a900473ffffffffffffffffffffffffffffffffffffffff16905090565b606060018054611ca490613dce565b80601f0160208091040260200160405190810160405280929190818152602001828054611cd090613dce565b8015611d1d5780601f10611cf257610100808354040283529160200191611d1d565b820191906000526020600020905b815481529060010190602001808311611d0057829003601f168201915b5050505050905090565b611d39611d3261253f565b8383612c13565b5050565b611d4e611d4861253f565b836126c0565b611d8d576040517f08c379a0000000000000000000000000000000000000000000000000000000008152600401611d84906141cc565b60405180910390fd5b611d9984848484612d7f565b50505050565b611da7612476565b6000600b60008481526020019081526020016000205411611dfd576040517f08c379a0000000000000000000000000000000000000000000000000000000008152600401611df490613e4b565b60405180910390fd5b80600b6000848152602001908152602001600020819055505050565b6060611e2482612ddb565b611e63576040517f08c379a0000000000000000000000000000000000000000000000000000000008152600401611e5a906147ae565b60405180910390fd5b6000601160008481526020019081526020016000205490506000600e60008381526020019081526020016000206040518060c00160405290816000820160009054906101000a900473ffffffffffffffffffffffffffffffffffffffff1673ffffffffffffffffffffffffffffffffffffffff1673ffffffffffffffffffffffffffffffffffffffff168152602001600182015481526020016002820154815260200160038201548152602001600482015481526020016005820160009054906101000a900460ff166004811115611f3e57611f3d61378e565b5b6004811115611f5057611f4f61378e565b5b815250509050606060006004811115611f6c57611f6b61378e565b5b8260a001516004811115611f8357611f8261378e565b5b03611fc5576040518060400160405280600781526020017f50656e64696e67000000000000000000000000000000000000000000000000008152509050612148565b60016004811115611fd957611fd861378e565b5b8260a001516004811115611ff057611fef61378e565b5b03612032576040518060400160405280600981526020017f436f6e6669726d656400000000000000000000000000000000000000000000008152509050612147565b600260048111156120465761204561378e565b5b8260a00151600481111561205d5761205c61378e565b5b0361209f576040518060400160405280600981526020017f43616e63656c6c656400000000000000000000000000000000000000000000008152509050612146565b600360048111156120b3576120b261378e565b5b8260a0015160048111156120ca576120c961378e565b5b0361210c576040518060400160405280600981526020017f436f6d706c6574656400000000000000000000000000000000000000000000008152509050612145565b6040518060400160405280600781526020017f556e6b6e6f776e0000000000000000000000000000000000000000000000000081525090505b5b5b5b600061215384612e1c565b6121608460200151612e1c565b61216986612e1c565b60405160200161217b93929190614a1e565b60405160208183030381529060405290508061219a8460200151612e1c565b6040516020016121ab929190614b5a565b6040516020818303038152906040529050806121ca8460800151612e1c565b6040516020016121db929190614c06565b604051602081830303815290604052905080826040516020016121ff929190614cd8565b6040516020818303038152906040529050806040516020016122219190614d5e565b6040516020818303038152906040529050806040516020016122439190614dcc565b604051602081830303815290604052945050505050919050565b600c6020528060005260406000206000915054906101000a900460ff1681565b6000600560008473ffffffffffffffffffffffffffffffffffffffff1673ffffffffffffffffffffffffffffffffffffffff16815260200190815260200160002060008373ffffffffffffffffffffffffffffffffffffffff1673ffffffffffffffffffffffffffffffffffffffff16815260200190815260200160002060009054906101000a900460ff16905092915050565b612319612476565b600073ffffffffffffffffffffffffffffffffffffffff168173ffffffffffffffffffffffffffffffffffffffff1603612388576040517f08c379a000000000000000000000000000000000000000000000000000000000815260040161237f90614e60565b60405180910390fd5b61239181612b4d565b50565b60007f80ac58cd000000000000000000000000000000000000000000000000000000007bffffffffffffffffffffffffffffffffffffffffffffffffffffffff1916827bffffffffffffffffffffffffffffffffffffffffffffffffffffffff1916148061245f57507f5b5e139f000000000000000000000000000000000000000000000000000000007bffffffffffffffffffffffffffffffffffffffffffffffffffffffff1916827bffffffffffffffffffffffffffffffffffffffffffffffffffffffff1916145b8061246f575061246e82612f82565b5b9050919050565b61247e61253f565b73ffffffffffffffffffffffffffffffffffffffff1661249c611c6b565b73ffffffffffffffffffffffffffffffffffffffff16146124f2576040517f08c379a00000000000000000000000000000000000000000000000000000000081526004016124e990614ecc565b60405180910390fd5b565b6124fd81612ddb565b61253c576040517f08c379a0000000000000000000000000000000000000000000000000000000008152600401612533906142e3565b60405180910390fd5b50565b600033905090565b816004600083815260200190815260200160002060006101000a81548173ffffffffffffffffffffffffffffffffffffffff021916908373ffffffffffffffffffffffffffffffffffffffff160217905550808273ffffffffffffffffffffffffffffffffffffffff166125ba836114e8565b73ffffffffffffffffffffffffffffffffffffffff167f8c5be1e5ebec7d5bd14f71427d1e84f3dd0314c0f7b2291e5b200ac8c7c3b92560405160405180910390a45050565b600260085403612645576040517f08c379a000000000000000000000000000000000000000000000000000000000815260040161263c90614f38565b60405180910390fd5b6002600881905550565b60008290505b818110156126b0576000600d6000868152602001908152602001600020600083815260200190815260200160002060006101000a81548160ff02191690831515021790555062015180816126a9919061421b565b9050612655565b50505050565b6001600881905550565b6000806126cc836114e8565b90508073ffffffffffffffffffffffffffffffffffffffff168473ffffffffffffffffffffffffffffffffffffffff16148061270e575061270d818561227d565b5b8061274c57508373ffffffffffffffffffffffffffffffffffffffff1661273484610b85565b73ffffffffffffffffffffffffffffffffffffffff16145b91505092915050565b8273ffffffffffffffffffffffffffffffffffffffff16612775826114e8565b73ffffffffffffffffffffffffffffffffffffffff16146127cb576040517f08c379a00000000000000000000000000000000000000000000000000000000081526004016127c290614fca565b60405180910390fd5b600073ffffffffffffffffffffffffffffffffffffffff168273ffffffffffffffffffffffffffffffffffffffff160361283a576040517f08c379a00000000000000000000000000000000000000000000000000000000081526004016128319061505c565b60405180910390fd5b6128478383836001612fec565b8273ffffffffffffffffffffffffffffffffffffffff16612867826114e8565b73ffffffffffffffffffffffffffffffffffffffff16146128bd576040517f08c379a00000000000000000000000000000000000000000000000000000000081526004016128b490614fca565b60405180910390fd5b6004600082815260200190815260200160002060006101000a81549073ffffffffffffffffffffffffffffffffffffffff02191690556001600360008573ffffffffffffffffffffffffffffffffffffffff1673ffffffffffffffffffffffffffffffffffffffff168152602001908152602001600020600082825403925050819055506001600360008473ffffffffffffffffffffffffffffffffffffffff1673ffffffffffffffffffffffffffffffffffffffff16815260200190815260200160002060008282540192505081905550816002600083815260200190815260200160002060006101000a81548173ffffffffffffffffffffffffffffffffffffffff021916908373ffffffffffffffffffffffffffffffffffffffff160217905550808273ffffffffffffffffffffffffffffffffffffffff168473ffffffffffffffffffffffffffffffffffffffff167fddf252ad1be2c89b69c2b068fc378daa952ba7f163c4a11628f55a4df523b3ef60405160405180910390a4612a498383836001612ff2565b505050565b612a68828260405180602001604052806000815250612ff8565b5050565b612a7582612ddb565b612ab4576040517f08c379a0000000000000000000000000000000000000000000000000000000008152600401612aab906150ee565b60405180910390fd5b80600660008481526020019081526020016000209081612ad491906152ba565b507ff8e1a15aba9398e019f0b49df1a4fde98ee17ae345cb5f6b5e2c27f5033e8ce782604051612b0491906135f9565b60405180910390a15050565b60006002600083815260200190815260200160002060009054906101000a900473ffffffffffffffffffffffffffffffffffffffff169050919050565b6000600760009054906101000a900473ffffffffffffffffffffffffffffffffffffffff16905081600760006101000a81548173ffffffffffffffffffffffffffffffffffffffff021916908373ffffffffffffffffffffffffffffffffffffffff1602179055508173ffffffffffffffffffffffffffffffffffffffff168173ffffffffffffffffffffffffffffffffffffffff167f8be0079c531659141344cd1fd0a4f28419497f9722a3daafe3b4186f6b6457e060405160405180910390a35050565b8173ffffffffffffffffffffffffffffffffffffffff168373ffffffffffffffffffffffffffffffffffffffff1603612c81576040517f08c379a0000000000000000000000000000000000000000000000000000000008152600401612c78906153d8565b60405180910390fd5b80600560008573ffffffffffffffffffffffffffffffffffffffff1673ffffffffffffffffffffffffffffffffffffffff16815260200190815260200160002060008473ffffffffffffffffffffffffffffffffffffffff1673ffffffffffffffffffffffffffffffffffffffff16815260200190815260200160002060006101000a81548160ff0219169083151502179055508173ffffffffffffffffffffffffffffffffffffffff168373ffffffffffffffffffffffffffffffffffffffff167f17307eab39ab6107e8899845ad3d59bd9653f200f220920489ca2b5937696c3183604051612d72919061352c565b60405180910390a3505050565b612d8a848484612755565b612d9684848484613053565b612dd5576040517f08c379a0000000000000000000000000000000000000000000000000000000008152600401612dcc9061546a565b60405180910390fd5b50505050565b60008073ffffffffffffffffffffffffffffffffffffffff16612dfd83612b10565b73ffffffffffffffffffffffffffffffffffffffff1614159050919050565b606060008203612e63576040518060400160405280600181526020017f30000000000000000000000000000000000000000000000000000000000000008152509050612f7d565b600082905060005b60008214612e95578080612e7e9061424f565b915050600a82612e8e91906154b9565b9150612e6b565b60008167ffffffffffffffff811115612eb157612eb0613ad9565b5b6040519080825280601f01601f191660200182016040528015612ee35781602001600182028036833780820191505090505b50905060008290508593505b60008414612f7557600a84612f0491906154ea565b6030612f10919061421b565b60f81b8282612f1e9061551b565b92508281518110612f3257612f31615544565b5b60200101907effffffffffffffffffffffffffffffffffffffffffffffffffffffffffffff1916908160001a905350600a84612f6e91906154b9565b9350612eef565b819450505050505b919050565b60007f01ffc9a7000000000000000000000000000000000000000000000000000000007bffffffffffffffffffffffffffffffffffffffffffffffffffffffff1916827bffffffffffffffffffffffffffffffffffffffffffffffffffffffff1916149050919050565b50505050565b50505050565b61300283836131da565b61300f6000848484613053565b61304e576040517f08c379a00000000000000000000000000000000000000000000000000000000081526004016130459061546a565b60405180910390fd5b505050565b60006130748473ffffffffffffffffffffffffffffffffffffffff166133f7565b156131cd578373ffffffffffffffffffffffffffffffffffffffff1663150b7a0261309d61253f565b8786866040518563ffffffff1660e01b81526004016130bf94939291906155c8565b6020604051808303816000875af19250505080156130fb57506040513d601f19601f820116820180604052508101906130f89190615629565b60015b61317d573d806000811461312b576040519150601f19603f3d011682016040523d82523d6000602084013e613130565b606091505b506000815103613175576040517f08c379a000000000000000000000000000000000000000000000000000000000815260040161316c9061546a565b60405180910390fd5b805181602001fd5b63150b7a0260e01b7bffffffffffffffffffffffffffffffffffffffffffffffffffffffff1916817bffffffffffffffffffffffffffffffffffffffffffffffffffffffff1916149150506131d2565b600190505b949350505050565b600073ffffffffffffffffffffffffffffffffffffffff168273ffffffffffffffffffffffffffffffffffffffff1603613249576040517f08c379a0000000000000000000000000000000000000000000000000000000008152600401613240906156a2565b60405180910390fd5b61325281612ddb565b15613292576040517f08c379a00000000000000000000000000000000000000000000000000000000081526004016132899061570e565b60405180910390fd5b6132a0600083836001612fec565b6132a981612ddb565b156132e9576040517f08c379a00000000000000000000000000000000000000000000000000000000081526004016132e09061570e565b60405180910390fd5b6001600360008473ffffffffffffffffffffffffffffffffffffffff1673ffffffffffffffffffffffffffffffffffffffff16815260200190815260200160002060008282540192505081905550816002600083815260200190815260200160002060006101000a81548173ffffffffffffffffffffffffffffffffffffffff021916908373ffffffffffffffffffffffffffffffffffffffff160217905550808273ffffffffffffffffffffffffffffffffffffffff16600073ffffffffffffffffffffffffffffffffffffffff167fddf252ad1be2c89b69c2b068fc378daa952ba7f163c4a11628f55a4df523b3ef60405160405180910390a46133f3600083836001612ff2565b5050565b6000808273ffffffffffffffffffffffffffffffffffffffff163b119050919050565b6040518060c00160405280600073ffffffffffffffffffffffffffffffffffffffff16815260200160008152602001600081526020016000815260200160008152602001600060048111156134725761347161378e565b5b81525090565b6000604051905090565b600080fd5b600080fd5b60007fffffffff0000000000000000000000000000000000000000000000000000000082169050919050565b6134c18161348c565b81146134cc57600080fd5b50565b6000813590506134de816134b8565b92915050565b6000602082840312156134fa576134f9613482565b5b6000613508848285016134cf565b91505092915050565b60008115159050919050565b61352681613511565b82525050565b6000602082019050613541600083018461351d565b92915050565b6000819050919050565b61355a81613547565b811461356557600080fd5b50565b60008135905061357781613551565b92915050565b6000806040838503121561359457613593613482565b5b60006135a285828601613568565b92505060206135b385828601613568565b9150509250929050565b6000602082840312156135d3576135d2613482565b5b60006135e184828501613568565b91505092915050565b6135f381613547565b82525050565b600060208201905061360e60008301846135ea565b92915050565b600081519050919050565b600082825260208201905092915050565b60005b8381101561364e578082015181840152602081019050613633565b60008484015250505050565b6000601f19601f8301169050919050565b600061367682613614565b613680818561361f565b9350613690818560208601613630565b6136998161365a565b840191505092915050565b600060208201905081810360008301526136be818461366b565b905092915050565b600073ffffffffffffffffffffffffffffffffffffffff82169050919050565b60006136f1826136c6565b9050919050565b613701816136e6565b82525050565b600060208201905061371c60008301846136f8565b92915050565b61372b816136e6565b811461373657600080fd5b50565b60008135905061374881613722565b92915050565b6000806040838503121561376557613764613482565b5b600061377385828601613739565b925050602061378485828601613568565b9150509250929050565b7f4e487b7100000000000000000000000000000000000000000000000000000000600052602160045260246000fd5b600581106137ce576137cd61378e565b5b50565b60008190506137df826137bd565b919050565b60006137ef826137d1565b9050919050565b6137ff816137e4565b82525050565b600060c08201905061381a60008301896136f8565b61382760208301886135ea565b61383460408301876135ea565b61384160608301866135ea565b61384e60808301856135ea565b61385b60a08301846137f6565b979650505050505050565b60008060006060848603121561387f5761387e613482565b5b600061388d86828701613739565b935050602061389e86828701613739565b92505060406138af86828701613568565b9150509250925092565b6000806000606084860312156138d2576138d1613482565b5b60006138e086828701613568565b93505060206138f186828701613568565b925050604061390286828701613568565b9150509250925092565b6000806000806080858703121561392657613925613482565b5b600061393487828801613568565b945050602061394587828801613568565b935050604061395687828801613568565b925050606061396787828801613568565b91505092959194509250565b61397c816136e6565b82525050565b61398b81613547565b82525050565b61399a816137e4565b82525050565b60c0820160008201516139b66000850182613973565b5060208201516139c96020850182613982565b5060408201516139dc6040850182613982565b5060608201516139ef6060850182613982565b506080820151613a026080850182613982565b5060a0820151613a1560a0850182613991565b50505050565b600060c082019050613a3060008301846139a0565b92915050565b600060208284031215613a4c57613a4b613482565b5b6000613a5a84828501613739565b91505092915050565b613a6c81613511565b8114613a7757600080fd5b50565b600081359050613a8981613a63565b92915050565b60008060408385031215613aa657613aa5613482565b5b6000613ab485828601613739565b9250506020613ac585828601613a7a565b9150509250929050565b600080fd5b600080fd5b7f4e487b7100000000000000000000000000000000000000000000000000000000600052604160045260246000fd5b613b118261365a565b810181811067ffffffffffffffff82111715613b3057613b2f613ad9565b5b80604052505050565b6000613b43613478565b9050613b4f8282613b08565b919050565b600067ffffffffffffffff821115613b6f57613b6e613ad9565b5b613b788261365a565b9050602081019050919050565b82818337600083830152505050565b6000613ba7613ba284613b54565b613b39565b905082815260208101848484011115613bc357613bc2613ad4565b5b613bce848285613b85565b509392505050565b600082601f830112613beb57613bea613acf565b5b8135613bfb848260208601613b94565b91505092915050565b60008060008060808587031215613c1e57613c1d613482565b5b6000613c2c87828801613739565b9450506020613c3d87828801613739565b9350506040613c4e87828801613568565b925050606085013567ffffffffffffffff811115613c6f57613c6e613487565b5b613c7b87828801613bd6565b91505092959194509250565b60008060408385031215613c9e57613c9d613482565b5b6000613cac85828601613739565b9250506020613cbd85828601613739565b9150509250929050565b7f50726f706572747920616c726561647920657869737473000000000000000000600082015250565b6000613cfd60178361361f565b9150613d0882613cc7565b602082019050919050565b60006020820190508181036000830152613d2c81613cf0565b9050919050565b7f5072696365206d7573742062652067726561746572207468616e203000000000600082015250565b6000613d69601c8361361f565b9150613d7482613d33565b602082019050919050565b60006020820190508181036000830152613d9881613d5c565b9050919050565b7f4e487b7100000000000000000000000000000000000000000000000000000000600052602260045260246000fd5b60006002820490506001821680613de657607f821691505b602082108103613df957613df8613d9f565b5b50919050565b7f50726f706572747920646f6573206e6f74206578697374000000000000000000600082015250565b6000613e3560178361361f565b9150613e4082613dff565b602082019050919050565b60006020820190508181036000830152613e6481613e28565b9050919050565b7f4552433732313a20617070726f76616c20746f2063757272656e74206f776e6560008201527f7200000000000000000000000000000000000000000000000000000000000000602082015250565b6000613ec760218361361f565b9150613ed282613e6b565b604082019050919050565b60006020820190508181036000830152613ef681613eba565b9050919050565b7f4552433732313a20617070726f76652063616c6c6572206973206e6f7420746f60008201527f6b656e206f776e6572206f7220617070726f76656420666f7220616c6c000000602082015250565b6000613f59603d8361361f565b9150613f6482613efd565b604082019050919050565b60006020820190508181036000830152613f8881613f4c565b9050919050565b7f4e6f7420626f6f6b696e67206f776e6572000000000000000000000000000000600082015250565b6000613fc560118361361f565b9150613fd082613f8f565b602082019050919050565b60006020820190508181036000830152613ff481613fb8565b9050919050565b7f43616e6e6f742063616e63656c207468697320626f6f6b696e67000000000000600082015250565b6000614031601a8361361f565b915061403c82613ffb565b602082019050919050565b6000602082019050818103600083015261406081614024565b9050919050565b600060208201905061407c60008301846137f6565b92915050565b7f43616e6e6f7420636f6d706c657465207468697320626f6f6b696e6700000000600082015250565b60006140b8601c8361361f565b91506140c382614082565b602082019050919050565b600060208201905081810360008301526140e7816140ab565b9050919050565b7f426f6f6b696e6720686173206e6f7420656e6465642079657400000000000000600082015250565b600061412460198361361f565b915061412f826140ee565b602082019050919050565b6000602082019050818103600083015261415381614117565b9050919050565b7f4552433732313a2063616c6c6572206973206e6f7420746f6b656e206f776e6560008201527f72206f7220617070726f76656400000000000000000000000000000000000000602082015250565b60006141b6602d8361361f565b91506141c18261415a565b604082019050919050565b600060208201905081810360008301526141e5816141a9565b9050919050565b7f4e487b7100000000000000000000000000000000000000000000000000000000600052601160045260246000fd5b600061422682613547565b915061423183613547565b9250828201905080821115614249576142486141ec565b5b92915050565b600061425a82613547565b91507fffffffffffffffffffffffffffffffffffffffffffffffffffffffffffffffff820361428c5761428b6141ec565b5b600182019050919050565b7f4552433732313a20696e76616c696420746f6b656e2049440000000000000000600082015250565b60006142cd60188361361f565b91506142d882614297565b602082019050919050565b600060208201905081810360008301526142fc816142c0565b9050919050565b7f53746172742064617465206d7573742062652061667465722063757272656e7460008201527f20626c6f636b2074696d65000000000000000000000000000000000000000000602082015250565b600061435f602b8361361f565b915061436a82614303565b604082019050919050565b6000602082019050818103600083015261438e81614352565b9050919050565b7f456e642064617465206d7573742062652061667465722073746172742064617460008201527f6500000000000000000000000000000000000000000000000000000000000000602082015250565b60006143f160218361361f565b91506143fc82614395565b604082019050919050565b60006020820190508181036000830152614420816143e4565b9050919050565b7f50726f7065727479206973206e6f742061637469766500000000000000000000600082015250565b600061445d60168361361f565b915061446882614427565b602082019050919050565b6000602082019050818103600083015261448c81614450565b9050919050565b7f426f6f6b696e672074696d65206f7665726c617073207769746820657869737460008201527f696e67206f6e6500000000000000000000000000000000000000000000000000602082015250565b60006144ef60278361361f565b91506144fa82614493565b604082019050919050565b6000602082019050818103600083015261451e816144e2565b9050919050565b7f426f6f6b696e6720616d6f756e7420646f6573206e6f74206d6174636820707260008201527f6f70657274792070726963650000000000000000000000000000000000000000602082015250565b6000614581602c8361361f565b915061458c82614525565b604082019050919050565b600060208201905081810360008301526145b081614574565b9050919050565b7f53656e742076616c7565206973206c657373207468616e20626f6f6b696e672060008201527f616d6f756e740000000000000000000000000000000000000000000000000000602082015250565b600061461360268361361f565b915061461e826145b7565b604082019050919050565b6000602082019050818103600083015261464281614606565b9050919050565b600061465482613547565b915061465f83613547565b9250828203905081811115614677576146766141ec565b5b92915050565b600060a08201905061469260008301886135ea565b61469f60208301876135ea565b6146ac60408301866135ea565b6146b960608301856135ea565b6146c660808301846137f6565b9695505050505050565b7f4552433732313a2061646472657373207a65726f206973206e6f74206120766160008201527f6c6964206f776e65720000000000000000000000000000000000000000000000602082015250565b600061472c60298361361f565b9150614737826146d0565b604082019050919050565b6000602082019050818103600083015261475b8161471f565b9050919050565b7f4e465420646f6573206e6f742065786973740000000000000000000000000000600082015250565b600061479860128361361f565b91506147a382614762565b602082019050919050565b600060208201905081810360008301526147c78161478b565b9050919050565b600081905092915050565b7f7b226e616d65223a22426f6f6b696e67204e4654202300000000000000000000600082015250565b600061480f6016836147ce565b915061481a826147d9565b601682019050919050565b600061483082613614565b61483a81856147ce565b935061484a818560208601613630565b80840191505092915050565b7f222c000000000000000000000000000000000000000000000000000000000000600082015250565b600061488c6002836147ce565b915061489782614856565b600282019050919050565b7f226465736372697074696f6e223a225265616c2045737461746520426f6f6b6960008201527f6e67204e4654202d2050726f7065727479202300000000000000000000000000602082015250565b60006148fe6033836147ce565b9150614909826148a2565b603382019050919050565b7f22696d616765223a2268747470733a2f2f70696373756d2e70686f746f732f7360008201527f6565642f00000000000000000000000000000000000000000000000000000000602082015250565b60006149706024836147ce565b915061497b82614914565b602482019050919050565b7f2f3430302f333030222c00000000000000000000000000000000000000000000600082015250565b60006149bc600a836147ce565b91506149c782614986565b600a82019050919050565b7f2261747472696275746573223a5b000000000000000000000000000000000000600082015250565b6000614a08600e836147ce565b9150614a13826149d2565b600e82019050919050565b6000614a2982614802565b9150614a358286614825565b9150614a408261487f565b9150614a4b826148f1565b9150614a578285614825565b9150614a628261487f565b9150614a6d82614963565b9150614a798284614825565b9150614a84826149af565b9150614a8f826149fb565b9150819050949350505050565b7f7b2274726169745f74797065223a2250726f7065727479204944222c2264697360008201527f706c61795f74797065223a226e756d626572222c2276616c7565223a00000000602082015250565b6000614af8603c836147ce565b9150614b0382614a9c565b603c82019050919050565b7f7d2c000000000000000000000000000000000000000000000000000000000000600082015250565b6000614b446002836147ce565b9150614b4f82614b0e565b600282019050919050565b6000614b668285614825565b9150614b7182614aeb565b9150614b7d8284614825565b9150614b8882614b37565b91508190509392505050565b7f7b2274726169745f74797065223a22416d6f756e7420576569222c226469737060008201527f6c61795f74797065223a226e756d626572222c2276616c7565223a0000000000602082015250565b6000614bf0603b836147ce565b9150614bfb82614b94565b603b82019050919050565b6000614c128285614825565b9150614c1d82614be3565b9150614c298284614825565b9150614c3482614b37565b91508190509392505050565b7f7b2274726169745f74797065223a22537461747573222c2276616c7565223a22600082015250565b6000614c766020836147ce565b9150614c8182614c40565b602082019050919050565b7f227d000000000000000000000000000000000000000000000000000000000000600082015250565b6000614cc26002836147ce565b9150614ccd82614c8c565b600282019050919050565b6000614ce48285614825565b9150614cef82614c69565b9150614cfb8284614825565b9150614d0682614cb5565b91508190509392505050565b7f5d7d000000000000000000000000000000000000000000000000000000000000600082015250565b6000614d486002836147ce565b9150614d5382614d12565b600282019050919050565b6000614d6a8284614825565b9150614d7582614d3b565b915081905092915050565b7f646174613a6170706c69636174696f6e2f6a736f6e2c00000000000000000000600082015250565b6000614db66016836147ce565b9150614dc182614d80565b601682019050919050565b6000614dd782614da9565b9150614de38284614825565b915081905092915050565b7f4f776e61626c653a206e6577206f776e657220697320746865207a65726f206160008201527f6464726573730000000000000000000000000000000000000000000000000000602082015250565b6000614e4a60268361361f565b9150614e5582614dee565b604082019050919050565b60006020820190508181036000830152614e7981614e3d565b9050919050565b7f4f776e61626c653a2063616c6c6572206973206e6f7420746865206f776e6572600082015250565b6000614eb660208361361f565b9150614ec182614e80565b602082019050919050565b60006020820190508181036000830152614ee581614ea9565b9050919050565b7f5265656e7472616e637947756172643a207265656e7472616e742063616c6c00600082015250565b6000614f22601f8361361f565b9150614f2d82614eec565b602082019050919050565b60006020820190508181036000830152614f5181614f15565b9050919050565b7f4552433732313a207472616e736665722066726f6d20696e636f72726563742060008201527f6f776e6572000000000000000000000000000000000000000000000000000000602082015250565b6000614fb460258361361f565b9150614fbf82614f58565b604082019050919050565b60006020820190508181036000830152614fe381614fa7565b9050919050565b7f4552433732313a207472616e7366657220746f20746865207a65726f2061646460008201527f7265737300000000000000000000000000000000000000000000000000000000602082015250565b600061504660248361361f565b915061505182614fea565b604082019050919050565b6000602082019050818103600083015261507581615039565b9050919050565b7f45524337323155524953746f726167653a2055524920736574206f66206e6f6e60008201527f6578697374656e7420746f6b656e000000000000000000000000000000000000602082015250565b60006150d8602e8361361f565b91506150e38261507c565b604082019050919050565b60006020820190508181036000830152615107816150cb565b9050919050565b60008190508160005260206000209050919050565b60006020601f8301049050919050565b600082821b905092915050565b6000600883026151707fffffffffffffffffffffffffffffffffffffffffffffffffffffffffffffffff82615133565b61517a8683615133565b95508019841693508086168417925050509392505050565b6000819050919050565b60006151b76151b26151ad84613547565b615192565b613547565b9050919050565b6000819050919050565b6151d18361519c565b6151e56151dd826151be565b848454615140565b825550505050565b600090565b6151fa6151ed565b6152058184846151c8565b505050565b5b818110156152295761521e6000826151f2565b60018101905061520b565b5050565b601f82111561526e5761523f8161510e565b61524884615123565b81016020851015615257578190505b61526b61526385615123565b83018261520a565b50505b505050565b600082821c905092915050565b600061529160001984600802615273565b1980831691505092915050565b60006152aa8383615280565b9150826002028217905092915050565b6152c382613614565b67ffffffffffffffff8111156152dc576152db613ad9565b5b6152e68254613dce565b6152f182828561522d565b600060209050601f8311600181146153245760008415615312578287015190505b61531c858261529e565b865550615384565b601f1984166153328661510e565b60005b8281101561535a57848901518255600182019150602085019450602081019050615335565b868310156153775784890151615373601f891682615280565b8355505b6001600288020188555050505b505050505050565b7f4552433732313a20617070726f766520746f2063616c6c657200000000000000600082015250565b60006153c260198361361f565b91506153cd8261538c565b602082019050919050565b600060208201905081810360008301526153f1816153b5565b9050919050565b7f4552433732313a207472616e7366657220746f206e6f6e20455243373231526560008201527f63656976657220696d706c656d656e7465720000000000000000000000000000602082015250565b600061545460328361361f565b915061545f826153f8565b604082019050919050565b6000602082019050818103600083015261548381615447565b9050919050565b7f4e487b7100000000000000000000000000000000000000000000000000000000600052601260045260246000fd5b60006154c482613547565b91506154cf83613547565b9250826154df576154de61548a565b5b828204905092915050565b60006154f582613547565b915061550083613547565b9250826155105761550f61548a565b5b828206905092915050565b600061552682613547565b915060008203615539576155386141ec565b5b600182039050919050565b7f4e487b7100000000000000000000000000000000000000000000000000000000600052603260045260246000fd5b600081519050919050565b600082825260208201905092915050565b600061559a82615573565b6155a4818561557e565b93506155b4818560208601613630565b6155bd8161365a565b840191505092915050565b60006080820190506155dd60008301876136f8565b6155ea60208301866136f8565b6155f760408301856135ea565b8181036060830152615609818461558f565b905095945050505050565b600081519050615623816134b8565b92915050565b60006020828403121561563f5761563e613482565b5b600061564d84828501615614565b91505092915050565b7f4552433732313a206d696e7420746f20746865207a65726f2061646472657373600082015250565b600061568c60208361361f565b915061569782615656565b602082019050919050565b600060208201905081810360008301526156bb8161567f565b9050919050565b7f4552433732313a20746f6b656e20616c7265616479206d696e74656400000000600082015250565b60006156f8601c8361361f565b9150615703826156c2565b602082019050919050565b60006020820190508181036000830152615727816156eb565b905091905056fea2646970667358221220beffd1c319a886abc53e70a75e88a7cf11e7cdbe61b229085afc01adb411ce7b64736f6c63430008140033",
  "linkReferences": {},
  "deployedLinkReferences": {}
}