{
  "_format": "hh-sol-artifact-1",
  "contractName": "BookingContract",
  "sourceName": "contracts/BookingContract.sol",
  "abi": [
    {
      "inputs": [],
      "stateMutability": "nonpayable",
      "type": "constructor"
    },
    {
      "anonymous": false,
      "inputs": [
        {
          "indexed": true,
          "internalType": "address",
          "name": "owner",
          "type": "address"
        },
        {
          "indexed": true,
          "internalType": "address",
          "name": "approved",
          "type": "address"
        },
        {
          "indexed": true,
          "internalType": "uint256",
          "name": "tokenId",
          "type": "uint256"
        }
      ],
      "name": "Approval",
      "type": "event"
    },
    {
      "anonymous": false,
      "inputs": [
        {
          "indexed": true,
          "internalType": "address",
          "name": "owner",
          "type": "address"
        },
        {
          "indexed": true,
          "internalType": "address",
          "name": "operator",
          "type": "address"
        },
        {
          "indexed": false,
          "internalType": "bool",
          "name": "approved",
          "type": "bool"
        }
      ],
      "name": "ApprovalForAll",
      "type": "event"
    },
    {
      "anonymous": false,
      "inputs": [
        {
          "indexed": false,
          "internalType": "uint256",
          "name": "_fromTokenId",
          "type": "uint256"
        },
        {
          "indexed": false,
          "internalType": "uint256",
          "name": "_toTokenId",
          "type": "uint256"
        }
      ],
      "name": "BatchMetadataUpdate",
      "type": "event"
    },
    {
      "anonymous": false,
      "inputs": [
        {
          "indexed": true,
          "internalType": "uint256",
          "name": "bookingId",
          "type": "uint256"
        },
        {
          "indexed": true,
          "internalType": "address",
          "name": "user",
          "type": "address"
        },
        {
          "indexed": false,
          "internalType": "enum BookingContract.BookingStatus",
          "name": "status",
          "type": "uint8"
        }
      ],
      "name": "BookingCancelled",
      "type": "event"
    },
    {
      "anonymous": false,
      "inputs": [
        {
          "indexed": true,
          "internalType": "uint256",
          "name": "bookingId",
          "type": "uint256"
        },
        {
          "indexed": true,
          "internalType": "address",
          "name": "user",
          "type": "address"
        },
        {
          "indexed": false,
          "internalType": "enum BookingContract.BookingStatus",
          "name": "status",
          "type": "uint8"
        }
      ],
      "name": "BookingCompleted",
      "type": "event"
    },
    {
      "anonymous": false,
      "inputs": [
        {
          "indexed": true,
          "internalType": "uint256",
          "name": "bookingId",
          "type": "uint256"
        },
        {
          "indexed": true,
          "internalType": "address",
          "name": "user",
          "type": "address"
        },
        {
          "indexed": false,
          "internalType": "uint256",
          "name": "propertyId",
          "type": "uint256"
        },
        {
          "indexed": false,
          "internalType": "uint256",
          "name": "startDate",
          "type": "uint256"
        },
        {
          "indexed": false,
          "internalType": "uint256",
          "name": "endDate",
          "type": "uint256"
        },
        {
          "indexed": false,
          "internalType": "uint256",
          "name": "amount",
          "type": "uint256"
        },
        {
          "indexed": false,
          "internalType": "enum BookingContract.BookingStatus",
          "name": "status",
          "type": "uint8"
        }
      ],
      "name": "BookingCreated",
      "type": "event"
    },
    {
      "anonymous": false,
      "inputs": [
        {
          "indexed": false,
          "internalType": "uint256",
          "name": "_tokenId",
          "type": "uint256"
        }
      ],
      "name": "MetadataUpdate",
      "type": "event"
    },
    {
      "anonymous": false,
      "inputs": [
        {
          "indexed": true,
          "internalType": "uint256",
          "name": "bookingId",
          "type": "uint256"
        },
        {
          "indexed": true,
          "internalType": "uint256",
          "name": "tokenId",
          "type": "uint256"
        },
        {
          "indexed": true,
          "internalType": "address",
          "name": "to",
          "type": "address"
        }
      ],
      "name": "NFTMinted",
      "type": "event"
    },
    {
      "anonymous": false,
      "inputs": [
        {
          "indexed": true,
          "internalType": "address",
          "name": "previousOwner",
          "type": "address"
        },
        {
          "indexed": true,
          "internalType": "address",
          "name": "newOwner",
          "type": "address"
        }
      ],
      "name": "OwnershipTransferred",
      "type": "event"
    },
    {
      "anonymous": false,
      "inputs": [
        {
          "indexed": true,
          "internalType": "uint256",
          "name": "propertyId",
          "type": "uint256"
        },
        {
          "indexed": false,
          "internalType": "uint256",
          "name": "price",
          "type": "uint256"
        }
      ],
      "name": "PropertyAdded",
      "type": "event"
    },
    {
      "anonymous": false,
      "inputs": [
        {
          "indexed": true,
          "internalType": "address",
          "name": "from",
          "type": "address"
        },
        {
          "indexed": true,
          "internalType": "address",
          "name": "to",
          "type": "address"
        },
        {
          "indexed": true,
          "internalType": "uint256",
          "name": "tokenId",
          "type": "uint256"
        }
      ],
      "name": "Transfer",
      "type": "event"
    },
    {
      "inputs": [],
      "name": "DAYS_PER_SLOT",
      "outputs": [
        {
          "internalType": "uint256",
          "name": "",
          "type": "uint256"
        }
      ],
      "stateMutability": "view",
      "type": "function"
    },
    {
      "inputs": [],
      "name": "START_DATE",
      "outputs": [
        {
          "internalType": "uint256",
          "name": "",
          "type": "uint256"
        }
      ],
      "stateMutability": "view",
      "type": "function"
    },
    {
      "inputs": [
        {
          "internalType": "uint256",
          "name": "propertyId",
          "type": "uint256"
        }
      ],
      "name": "activateProperty",
      "outputs": [],
      "stateMutability": "nonpayable",
      "type": "function"
    },
    {
      "inputs": [
        {
          "internalType": "uint256",
          "name": "propertyId",
          "type": "uint256"
        },
        {
          "internalType": "uint256",
          "name": "price",
          "type": "uint256"
        }
      ],
      "name": "addProperty",
      "outputs": [],
      "stateMutability": "nonpayable",
      "type": "function"
    },
    {
      "inputs": [
        {
          "internalType": "address",
          "name": "to",
          "type": "address"
        },
        {
          "internalType": "uint256",
          "name": "tokenId",
          "type": "uint256"
        }
      ],
      "name": "approve",
      "outputs": [],
      "stateMutability": "nonpayable",
      "type": "function"
    },
    {
      "inputs": [
        {
          "internalType": "address",
          "name": "owner",
          "type": "address"
        }
      ],
      "name": "balanceOf",
      "outputs": [
        {
          "internalType": "uint256",
          "name": "",
          "type": "uint256"
        }
      ],
      "stateMutability": "view",
      "type": "function"
    },
    {
      "inputs": [
        {
          "internalType": "uint256",
          "name": "propertyId",
          "type": "uint256"
        },
        {
          "internalType": "uint256",
          "name": "startDate",
          "type": "uint256"
        },
        {
          "internalType": "uint256",
          "name": "endDate",
          "type": "uint256"
        },
        {
          "internalType": "uint256",
          "name": "amount",
          "type": "uint256"
        }
      ],
      "name": "book",
      "outputs": [],
      "stateMutability": "payable",
      "type": "function"
    },
    {
      "inputs": [],
      "name": "bookingCount",
      "outputs": [
        {
          "internalType": "uint256",
          "name": "",
          "type": "uint256"
        }
      ],
      "stateMutability": "view",
      "type": "function"
    },
    {
      "inputs": [
        {
          "internalType": "uint256",
          "name": "",
          "type": "uint256"
        }
      ],
      "name": "bookingPayments",
      "outputs": [
        {
          "internalType": "uint256",
          "name": "",
          "type": "uint256"
        }
      ],
      "stateMutability": "view",
      "type": "function"
    },
    {
      "inputs": [
        {
          "internalType": "uint256",
          "name": "",
          "type": "uint256"
        }
      ],
      "name": "bookingToNFT",
      "outputs": [
        {
          "internalType": "uint256",
          "name": "",
          "type": "uint256"
        }
      ],
      "stateMutability": "view",
      "type": "function"
    },
    {
      "inputs": [
        {
          "internalType": "uint256",
          "name": "",
          "type": "uint256"
        }
      ],
      "name": "bookings",
      "outputs": [
        {
          "internalType": "address",
          "name": "user",
          "type": "address"
        },
        {
          "internalType": "uint256",
          "name": "propertyId",
          "type": "uint256"
        },
        {
          "internalType": "uint256",
          "name": "startDate",
          "type": "uint256"
        },
        {
          "internalType": "uint256",
          "name": "endDate",
          "type": "uint256"
        },
        {
          "internalType": "uint256",
          "name": "amount",
          "type": "uint256"
        },
        {
          "internalType": "enum BookingContract.BookingStatus",
          "name": "status",
          "type": "uint8"
        }
      ],
      "stateMutability": "view",
      "type": "function"
    },
    {
      "inputs": [
        {
          "internalType": "uint256",
          "name": "bookingId",
          "type": "uint256"
        }
      ],
      "name": "cancelBooking",
      "outputs": [],
      "stateMutability": "nonpayable",
      "type": "function"
    },
    {
      "inputs": [
        {
          "internalType": "uint256",
          "name": "bookingId",
          "type": "uint256"
        }
      ],
      "name": "completeBooking",
      "outputs": [],
      "stateMutability": "nonpayable",
      "type": "function"
    },
    {
      "inputs": [
        {
          "internalType": "uint256",
          "name": "propertyId",
          "type": "uint256"
        }
      ],
      "name": "deactivateProperty",
      "outputs": [],
      "stateMutability": "nonpayable",
      "type": "function"
    },
    {
      "inputs": [
        {
          "internalType": "uint256",
          "name": "tokenId",
          "type": "uint256"
        }
      ],
      "name": "getApproved",
      "outputs": [
        {
          "internalType": "address",
          "name": "",
          "type": "address"
        }
      ],
      "stateMutability": "view",
      "type": "function"
    },
    {
      "inputs": [
        {
          "internalType": "uint256",
          "name": "bookingId",
          "type": "uint256"
        }
      ],
      "name": "getBooking",
      "outputs": [
        {
          "components": [
            {
              "internalType": "address",
              "name": "user",
              "type": "address"
            },
            {
              "internalType": "uint256",
              "name": "propertyId",
              "type": "uint256"
            },
            {
              "internalType": "uint256",
              "name": "startDate",
              "type": "uint256"
            },
            {
              "internalType": "uint256",
              "name": "endDate",
              "type": "uint256"
            },
            {
              "internalType": "uint256",
              "name": "amount",
              "type": "uint256"
            },
            {
              "internalType": "enum BookingContract.BookingStatus",
              "name": "status",
              "type": "uint8"
            }
          ],
          "internalType": "struct BookingContract.Booking",
          "name": "",
          "type": "tuple"
        }
      ],
      "stateMutability": "view",
      "type": "function"
    },
    {
      "inputs": [
        {
          "internalType": "address",
          "name": "owner",
          "type": "address"
        },
        {
          "internalType": "address",
          "name": "operator",
          "type": "address"
        }
      ],
      "name": "isApprovedForAll",
      "outputs": [
        {
          "internalType": "bool",
          "name": "",
          "type": "bool"
        }
      ],
      "stateMutability": "view",
      "type": "function"
    },
    {
      "inputs": [
        {
          "internalType": "address",
          "name": "to",
          "type": "address"
        },
        {
          "internalType": "uint256",
          "name": "bookingId",
          "type": "uint256"
        }
      ],
      "name": "mintBookingNFT",
      "outputs": [],
      "stateMutability": "nonpayable",
      "type": "function"
    },
    {
      "inputs": [],
      "name": "name",
      "outputs": [
        {
          "internalType": "string",
          "name": "",
          "type": "string"
        }
      ],
      "stateMutability": "view",
      "type": "function"
    },
    {
      "inputs": [],
      "name": "nextTokenId",
      "outputs": [
        {
          "internalType": "uint256",
          "name": "",
          "type": "uint256"
        }
      ],
      "stateMutability": "view",
      "type": "function"
    },
    {
      "inputs": [
        {
          "internalType": "uint256",
          "name": "",
          "type": "uint256"
        }
      ],
      "name": "nftToBooking",
      "outputs": [
        {
          "internalType": "uint256",
          "name": "",
          "type": "uint256"
        }
      ],
      "stateMutability": "view",
      "type": "function"
    },
    {
      "inputs": [
        {
          "internalType": "uint256",
          "name": "propertyId",
          "type": "uint256"
        },
        {
          "internalType": "uint256",
          "name": "startDate",
          "type": "uint256"
        },
        {
          "internalType": "uint256",
          "name": "endDate",
          "type": "uint256"
        }
      ],
      "name": "overlapBooking",
      "outputs": [
        {
          "internalType": "bool",
          "name": "",
          "type": "bool"
        }
      ],
      "stateMutability": "view",
      "type": "function"
    },
    {
      "inputs": [],
      "name": "owner",
      "outputs": [
        {
          "internalType": "address",
          "name": "",
          "type": "address"
        }
      ],
      "stateMutability": "view",
      "type": "function"
    },
    {
      "inputs": [
        {
          "internalType": "uint256",
          "name": "tokenId",
          "type": "uint256"
        }
      ],
      "name": "ownerOf",
      "outputs": [
        {
          "internalType": "address",
          "name": "",
          "type": "address"
        }
      ],
      "stateMutability": "view",
      "type": "function"
    },
    {
      "inputs": [
        {
          "internalType": "uint256",
          "name": "",
          "type": "uint256"
        }
      ],
      "name": "propertyActive",
      "outputs": [
        {
          "internalType": "bool",
          "name": "",
          "type": "bool"
        }
      ],
      "stateMutability": "view",
      "type": "function"
    },
    {
      "inputs": [
        {
          "internalType": "uint256",
          "name": "",
          "type": "uint256"
        },
        {
          "internalType": "uint256",
          "name": "",
          "type": "uint256"
        }
      ],
      "name": "propertyDateBookedBitmap",
      "outputs": [
        {
          "internalType": "uint256",
          "name": "",
          "type": "uint256"
        }
      ],
      "stateMutability": "view",
      "type": "function"
    },
    {
      "inputs": [
        {
          "internalType": "uint256",
          "name": "propertyId",
          "type": "uint256"
        }
      ],
      "name": "propertyExists",
      "outputs": [
        {
          "internalType": "bool",
          "name": "",
          "type": "bool"
        }
      ],
      "stateMutability": "view",
      "type": "function"
    },
    {
      "inputs": [
        {
          "internalType": "uint256",
          "name": "",
          "type": "uint256"
        }
      ],
      "name": "propertyPrice",
      "outputs": [
        {
          "internalType": "uint256",
          "name": "",
          "type": "uint256"
        }
      ],
      "stateMutability": "view",
      "type": "function"
    },
    {
      "inputs": [],
      "name": "renounceOwnership",
      "outputs": [],
      "stateMutability": "nonpayable",
      "type": "function"
    },
    {
      "inputs": [
        {
          "internalType": "address",
          "name": "from",
          "type": "address"
        },
        {
          "internalType": "address",
          "name": "to",
          "type": "address"
        },
        {
          "internalType": "uint256",
          "name": "tokenId",
          "type": "uint256"
        }
      ],
      "name": "safeTransferFrom",
      "outputs": [],
      "stateMutability": "nonpayable",
      "type": "function"
    },
    {
      "inputs": [
        {
          "internalType": "address",
          "name": "from",
          "type": "address"
        },
        {
          "internalType": "address",
          "name": "to",
          "type": "address"
        },
        {
          "internalType": "uint256",
          "name": "tokenId",
          "type": "uint256"
        },
        {
          "internalType": "bytes",
          "name": "data",
          "type": "bytes"
        }
      ],
      "name": "safeTransferFrom",
      "outputs": [],
      "stateMutability": "nonpayable",
      "type": "function"
    },
    {
      "inputs": [
        {
          "internalType": "address",
          "name": "operator",
          "type": "address"
        },
        {
          "internalType": "bool",
          "name": "approved",
          "type": "bool"
        }
      ],
      "name": "setApprovalForAll",
      "outputs": [],
      "stateMutability": "nonpayable",
      "type": "function"
    },
    {
      "inputs": [
        {
          "internalType": "uint256",
          "name": "propertyId",
          "type": "uint256"
        },
        {
          "internalType": "uint256",
          "name": "price",
          "type": "uint256"
        }
      ],
      "name": "setPropertyPrice",
      "outputs": [],
      "stateMutability": "nonpayable",
      "type": "function"
    },
    {
      "inputs": [
        {
          "internalType": "bytes4",
          "name": "interfaceId",
          "type": "bytes4"
        }
      ],
      "name": "supportsInterface",
      "outputs": [
        {
          "internalType": "bool",
          "name": "",
          "type": "bool"
        }
      ],
      "stateMutability": "view",
      "type": "function"
    },
    {
      "inputs": [],
      "name": "symbol",
      "outputs": [
        {
          "internalType": "string",
          "name": "",
          "type": "string"
        }
      ],
      "stateMutability": "view",
      "type": "function"
    },
    {
      "inputs": [
        {
          "internalType": "uint256",
          "name": "tokenId",
          "type": "uint256"
        }
      ],
      "name": "tokenURI",
      "outputs": [
        {
          "internalType": "string",
          "name": "",
          "type": "string"
        }
      ],
      "stateMutability": "view",
      "type": "function"
    },
    {
      "inputs": [
        {
          "internalType": "address",
          "name": "from",
          "type": "address"
        },
        {
          "internalType": "address",
          "name": "to",
          "type": "address"
        },
        {
          "internalType": "uint256",
          "name": "tokenId",
          "type": "uint256"
        }
      ],
      "name": "transferFrom",
      "outputs": [],
      "stateMutability": "nonpayable",
      "type": "function"
    },
    {
      "inputs": [
        {
          "internalType": "address",
          "name": "newOwner",
          "type": "address"
        }
      ],
      "name": "transferOwnership",
      "outputs": [],
      "stateMutability": "nonpayable",
      "type": "function"
    },
    {
      "inputs": [],
      "name": "withdraw",
      "outputs": [],
      "stateMutability": "nonpayable",
      "type": "function"
    }
  ],
  "bytecode": "0x60806040523480156200001157600080fd5b506040518060400160405280601181526020017f5265616c457374617465426f6f6b696e670000000000000000000000000000008152506040518060400160405280600381526020017f524542000000000000000000000000000000000000000000000000000000000081525081600090816200008f91906200042a565b508060019081620000a191906200042a565b505050620000c4620000b8620000e260201b60201c565b620000ea60201b60201c565b600160088190555060016009819055506001600a8190555062000511565b600033905090565b6000600760009054906101000a900473ffffffffffffffffffffffffffffffffffffffff16905081600760006101000a81548173ffffffffffffffffffffffffffffffffffffffff021916908373ffffffffffffffffffffffffffffffffffffffff1602179055508173ffffffffffffffffffffffffffffffffffffffff168173ffffffffffffffffffffffffffffffffffffffff167f8be0079c531659141344cd1fd0a4f28419497f9722a3daafe3b4186f6b6457e060405160405180910390a35050565b600081519050919050565b7f4e487b7100000000000000000000000000000000000000000000000000000000600052604160045260246000fd5b7f4e487b7100000000000000000000000000000000000000000000000000000000600052602260045260246000fd5b600060028204905060018216806200023257607f821691505b602082108103620002485762000247620001ea565b5b50919050565b60008190508160005260206000209050919050565b60006020601f8301049050919050565b600082821b905092915050565b600060088302620002b27fffffffffffffffffffffffffffffffffffffffffffffffffffffffffffffffff8262000273565b620002be868362000273565b95508019841693508086168417925050509392505050565b6000819050919050565b6000819050919050565b60006200030b62000305620002ff84620002d6565b620002e0565b620002d6565b9050919050565b6000819050919050565b6200032783620002ea565b6200033f620003368262000312565b84845462000280565b825550505050565b600090565b6200035662000347565b620003638184846200031c565b505050565b5b818110156200038b576200037f6000826200034c565b60018101905062000369565b5050565b601f821115620003da57620003a4816200024e565b620003af8462000263565b81016020851015620003bf578190505b620003d7620003ce8562000263565b83018262000368565b50505b505050565b600082821c905092915050565b6000620003ff60001984600802620003df565b1980831691505092915050565b60006200041a8383620003ec565b9150826002028217905092915050565b6200043582620001b0565b67ffffffffffffffff811115620004515762000450620001bb565b5b6200045d825462000219565b6200046a8282856200038f565b600060209050601f831160018114620004a257600084156200048d578287015190505b6200049985826200040c565b86555062000509565b601f198416620004b2866200024e565b60005b82811015620004dc57848901518255600182019150602085019450602081019050620004b5565b86831015620004fc5784890151620004f8601f891682620003ec565b8355505b6001600288020188555050505b505050505050565b61587380620005216000396000f3fe6080604052600436106102305760003560e01c806353a242d91161012e5780638da5cb5b116100ab578063beb8354c1161006f578063beb8354c1461088d578063c87b56dd146108b6578063d7a64787146108f3578063e985e9c514610930578063f2fde38b1461096d57610230565b80638da5cb5b146107ba57806395d89b41146107e5578063a22cb46514610810578063b51113ff14610839578063b88d4fde1461086457610230565b806370a08231116100f257806370a08231146106d5578063715018a61461071257806375794a3c146107295780637ab583e3146107545780637ca28bc61461079157610230565b806353a242d9146105eb5780636352211e1461061457806364b5d0a0146106515780636a5c841a1461066d5780636d759172146106aa57610230565b80631a2b3431116101bc578063411411dd11610180578063411411dd146104ce57806342842e0e1461050b5780634a164732146105345780634baad801146105715780634e160afc146105ae57610230565b80631a2b3431146103f85780631dab301e1461042157806323b872dd14610463578063372c65331461048c5780633ccfd60b146104b757610230565b8063081812fc11610203578063081812fc146103035780630891a48f14610340578063095ea7b3146103695780630dca825e1461039257806314050c5a146103bb57610230565b806301ffc9a71461023557806303b66f631461027257806304d28d8d1461029b57806306fdde03146102d8575b600080fd5b34801561024157600080fd5b5061025c600480360381019061025791906135f3565b610996565b604051610269919061363b565b60405180910390f35b34801561027e57600080fd5b506102996004803603810190610294919061368c565b6109f7565b005b3480156102a757600080fd5b506102c260048036038101906102bd91906136cc565b610b18565b6040516102cf9190613708565b60405180910390f35b3480156102e457600080fd5b506102ed610b30565b6040516102fa91906137b3565b60405180910390f35b34801561030f57600080fd5b5061032a600480360381019061032591906136cc565b610bc2565b6040516103379190613816565b60405180910390f35b34801561034c57600080fd5b50610367600480360381019061036291906136cc565b610c08565b005b34801561037557600080fd5b50610390600480360381019061038b919061385d565b610c95565b005b34801561039e57600080fd5b506103b960048036038101906103b491906136cc565b610dac565b005b3480156103c757600080fd5b506103e260048036038101906103dd91906136cc565b610fb5565b6040516103ef9190613708565b60405180910390f35b34801561040457600080fd5b5061041f600480360381019061041a91906136cc565b610fcd565b005b34801561042d57600080fd5b50610448600480360381019061044391906136cc565b6111c5565b60405161045a96959493929190613914565b60405180910390f35b34801561046f57600080fd5b5061048a60048036038101906104859190613975565b61122e565b005b34801561049857600080fd5b506104a161128e565b6040516104ae9190613708565b60405180910390f35b3480156104c357600080fd5b506104cc611296565b005b3480156104da57600080fd5b506104f560048036038101906104f091906139c8565b6112fe565b604051610502919061363b565b60405180910390f35b34801561051757600080fd5b50610532600480360381019061052d9190613975565b611349565b005b34801561054057600080fd5b5061055b600480360381019061055691906136cc565b611369565b604051610568919061363b565b60405180910390f35b34801561057d57600080fd5b50610598600480360381019061059391906136cc565b611388565b6040516105a59190613708565b60405180910390f35b3480156105ba57600080fd5b506105d560048036038101906105d0919061368c565b6113a0565b6040516105e29190613708565b60405180910390f35b3480156105f757600080fd5b50610612600480360381019061060d919061385d565b6113c5565b005b34801561062057600080fd5b5061063b600480360381019061063691906136cc565b61152a565b6040516106489190613816565b60405180910390f35b61066b60048036038101906106669190613a1b565b6115b0565b005b34801561067957600080fd5b50610694600480360381019061068f91906136cc565b611a04565b6040516106a19190613b2a565b60405180910390f35b3480156106b657600080fd5b506106bf611aea565b6040516106cc9190613708565b60405180910390f35b3480156106e157600080fd5b506106fc60048036038101906106f79190613b45565b611b00565b6040516107099190613708565b60405180910390f35b34801561071e57600080fd5b50610727611bb7565b005b34801561073557600080fd5b5061073e611bcb565b60405161074b9190613708565b60405180910390f35b34801561076057600080fd5b5061077b600480360381019061077691906136cc565b611bd5565b6040516107889190613708565b60405180910390f35b34801561079d57600080fd5b506107b860048036038101906107b391906136cc565b611bed565b005b3480156107c657600080fd5b506107cf611c7a565b6040516107dc9190613816565b60405180910390f35b3480156107f157600080fd5b506107fa611ca4565b60405161080791906137b3565b60405180910390f35b34801561081c57600080fd5b5061083760048036038101906108329190613b9e565b611d36565b005b34801561084557600080fd5b5061084e611d4c565b60405161085b9190613708565b60405180910390f35b34801561087057600080fd5b5061088b60048036038101906108869190613d13565b611d52565b005b34801561089957600080fd5b506108b460048036038101906108af919061368c565b611db4565b005b3480156108c257600080fd5b506108dd60048036038101906108d891906136cc565b611e2e565b6040516108ea91906137b3565b60405180910390f35b3480156108ff57600080fd5b5061091a600480360381019061091591906136cc565b612272565b604051610927919061363b565b60405180910390f35b34801561093c57600080fd5b5061095760048036038101906109529190613d96565b612292565b604051610964919061363b565b60405180910390f35b34801561097957600080fd5b50610994600480360381019061098f9190613b45565b612326565b005b6000634906490660e01b7bffffffffffffffffffffffffffffffffffffffffffffffffffffffff1916827bffffffffffffffffffffffffffffffffffffffffffffffffffffffff191614806109f057506109ef826123a9565b5b9050919050565b6109ff61248b565b6000600b60008481526020019081526020016000205414610a55576040517f08c379a0000000000000000000000000000000000000000000000000000000008152600401610a4c90613e22565b60405180910390fd5b60008111610a98576040517f08c379a0000000000000000000000000000000000000000000000000000000008152600401610a8f90613e8e565b60405180910390fd5b80600b6000848152602001908152602001600020819055506001600c600084815260200190815260200160002060006101000a81548160ff021916908315150217905550817f8c12dc081f3afb7b8cf4b4eafe341721d78a8ab3e76d8e5adcaccd8ecefb3af382604051610b0c9190613708565b60405180910390a25050565b60116020528060005260406000206000915090505481565b606060008054610b3f90613edd565b80601f0160208091040260200160405190810160405280929190818152602001828054610b6b90613edd565b8015610bb85780601f10610b8d57610100808354040283529160200191610bb8565b820191906000526020600020905b815481529060010190602001808311610b9b57829003601f168201915b5050505050905090565b6000610bcd82612509565b6004600083815260200190815260200160002060009054906101000a900473ffffffffffffffffffffffffffffffffffffffff169050919050565b610c1061248b565b6000600b60008381526020019081526020016000205411610c66576040517f08c379a0000000000000000000000000000000000000000000000000000000008152600401610c5d90613f5a565b60405180910390fd5b6001600c600083815260200190815260200160002060006101000a81548160ff02191690831515021790555050565b6000610ca08261152a565b90508073ffffffffffffffffffffffffffffffffffffffff168373ffffffffffffffffffffffffffffffffffffffff1603610d10576040517f08c379a0000000000000000000000000000000000000000000000000000000008152600401610d0790613fec565b60405180910390fd5b8073ffffffffffffffffffffffffffffffffffffffff16610d2f612554565b73ffffffffffffffffffffffffffffffffffffffff161480610d5e5750610d5d81610d58612554565b612292565b5b610d9d576040517f08c379a0000000000000000000000000000000000000000000000000000000008152600401610d949061407e565b60405180910390fd5b610da7838361255c565b505050565b610db4612615565b6000600e600083815260200190815260200160002090503373ffffffffffffffffffffffffffffffffffffffff168160000160009054906101000a900473ffffffffffffffffffffffffffffffffffffffff1673ffffffffffffffffffffffffffffffffffffffff1614610e5d576040517f08c379a0000000000000000000000000000000000000000000000000000000008152600401610e54906140ea565b60405180910390fd5b60006004811115610e7157610e7061389d565b5b8160050160009054906101000a900460ff166004811115610e9557610e9461389d565b5b1480610ed6575060016004811115610eb057610eaf61389d565b5b8160050160009054906101000a900460ff166004811115610ed457610ed361389d565b5b145b610f15576040517f08c379a0000000000000000000000000000000000000000000000000000000008152600401610f0c90614156565b60405180910390fd5b60028160050160006101000a81548160ff02191690836004811115610f3d57610f3c61389d565b5b0217905550610f59816001015482600201548360030154612664565b3373ffffffffffffffffffffffffffffffffffffffff16827f05eeaada89ac9092b19c582864b6f75c4796ca38f2cd2fe43f1e002be8671c586002604051610fa19190614176565b60405180910390a350610fb2612698565b50565b600b6020528060005260406000206000915090505481565b610fd5612615565b6000600e600083815260200190815260200160002090503373ffffffffffffffffffffffffffffffffffffffff168160000160009054906101000a900473ffffffffffffffffffffffffffffffffffffffff1673ffffffffffffffffffffffffffffffffffffffff161461107e576040517f08c379a0000000000000000000000000000000000000000000000000000000008152600401611075906140ea565b60405180910390fd5b600160048111156110925761109161389d565b5b8160050160009054906101000a900460ff1660048111156110b6576110b561389d565b5b146110f6576040517f08c379a00000000000000000000000000000000000000000000000000000000081526004016110ed906141dd565b60405180910390fd5b8060030154421161113c576040517f08c379a000000000000000000000000000000000000000000000000000000000815260040161113390614249565b60405180910390fd5b60038160050160006101000a81548160ff021916908360048111156111645761116361389d565b5b02179055503373ffffffffffffffffffffffffffffffffffffffff16827fcc8d29aef62db1a3527761281a725fb4454ace0682e0b6ba76f68a700f05fc3c60036040516111b19190614176565b60405180910390a3506111c2612698565b50565b600e6020528060005260406000206000915090508060000160009054906101000a900473ffffffffffffffffffffffffffffffffffffffff16908060010154908060020154908060030154908060040154908060050160009054906101000a900460ff16905086565b61123f611239612554565b826126a2565b61127e576040517f08c379a0000000000000000000000000000000000000000000000000000000008152600401611275906142db565b60405180910390fd5b611289838383612737565b505050565b636774858081565b61129e61248b565b6112a6612615565b6112ae611c7a565b73ffffffffffffffffffffffffffffffffffffffff166108fc479081150290604051600060405180830381858888f193505050501580156112f3573d6000803e3d6000fd5b506112fc612698565b565b6000808390505b8281101561133c576113178582612a30565b15611326576001915050611342565b6201518081611335919061432a565b9050611305565b50600090505b9392505050565b61136483838360405180602001604052806000815250611d52565b505050565b600080600b600084815260200190815260200160002054119050919050565b60106020528060005260406000206000915090505481565b600d602052816000526040600020602052806000526040600020600091509150505481565b6113cd612615565b3373ffffffffffffffffffffffffffffffffffffffff16600e600083815260200190815260200160002060000160009054906101000a900473ffffffffffffffffffffffffffffffffffffffff1673ffffffffffffffffffffffffffffffffffffffff1614611471576040517f08c379a0000000000000000000000000000000000000000000000000000000008152600401611468906140ea565b60405180910390fd5b6000600a60008154809291906114869061435e565b9190505590506114968382612a79565b8060106000848152602001908152602001600020819055508160116000838152602001908152602001600020819055506114d8816114d383611e2e565b612a97565b8273ffffffffffffffffffffffffffffffffffffffff1681837ffca9437e237ca408a74cca23e3078fd1f6c700960dac7f09f8c6cf5177aefe1a60405160405180910390a450611526612698565b5050565b60008061153683612b3b565b9050600073ffffffffffffffffffffffffffffffffffffffff168173ffffffffffffffffffffffffffffffffffffffff16036115a7576040517f08c379a000000000000000000000000000000000000000000000000000000000815260040161159e906143f2565b60405180910390fd5b80915050919050565b6115b8612615565b4283116115fa576040517f08c379a00000000000000000000000000000000000000000000000000000000081526004016115f190614484565b60405180910390fd5b82821161163c576040517f08c379a000000000000000000000000000000000000000000000000000000000815260040161163390614516565b60405180910390fd5b6000600b60008681526020019081526020016000205411611692576040517f08c379a000000000000000000000000000000000000000000000000000000000815260040161168990613f5a565b60405180910390fd5b600c600085815260200190815260200160002060009054906101000a900460ff166116f2576040517f08c379a00000000000000000000000000000000000000000000000000000000081526004016116e990614582565b60405180910390fd5b6116fd8484846112fe565b1561173d576040517f08c379a000000000000000000000000000000000000000000000000000000000815260040161173490614614565b60405180910390fd5b600b6000858152602001908152602001600020548114611792576040517f08c379a0000000000000000000000000000000000000000000000000000000008152600401611789906146a6565b60405180910390fd5b803410156117d5576040517f08c379a00000000000000000000000000000000000000000000000000000000081526004016117cc90614738565b60405180910390fd5b6000600960008154809291906117ea9061435e565b91905055905034600f60008381526020019081526020016000208190555060008490505b83811015611836576118208682612b78565b620151808161182f919061432a565b905061180e565b506040518060c001604052803373ffffffffffffffffffffffffffffffffffffffff1681526020018681526020018581526020018481526020018381526020016000600481111561188a5761188961389d565b5b815250600e600083815260200190815260200160002060008201518160000160006101000a81548173ffffffffffffffffffffffffffffffffffffffff021916908373ffffffffffffffffffffffffffffffffffffffff1602179055506020820151816001015560408201518160020155606082015181600301556080820151816004015560a08201518160050160006101000a81548160ff0219169083600481111561193a5761193961389d565b5b02179055509050508134111561199d573373ffffffffffffffffffffffffffffffffffffffff166108fc83346119709190614758565b9081150290604051600060405180830381858888f1935050505015801561199b573d6000803e3d6000fd5b505b3373ffffffffffffffffffffffffffffffffffffffff16817fc2e29aacd875702915a58c9cee9f7260328cfffddf7ea293a198e4912a70c7588787878760006040516119ed95949392919061478c565b60405180910390a3506119fe612698565b50505050565b611a0c613529565b600e60008381526020019081526020016000206040518060c00160405290816000820160009054906101000a900473ffffffffffffffffffffffffffffffffffffffff1673ffffffffffffffffffffffffffffffffffffffff1673ffffffffffffffffffffffffffffffffffffffff168152602001600182015481526020016002820154815260200160038201548152602001600482015481526020016005820160009054906101000a900460ff166004811115611acd57611acc61389d565b5b6004811115611adf57611ade61389d565b5b815250509050919050565b60006001600954611afb9190614758565b905090565b60008073ffffffffffffffffffffffffffffffffffffffff168273ffffffffffffffffffffffffffffffffffffffff1603611b70576040517f08c379a0000000000000000000000000000000000000000000000000000000008152600401611b6790614851565b60405180910390fd5b600360008373ffffffffffffffffffffffffffffffffffffffff1673ffffffffffffffffffffffffffffffffffffffff168152602001908152602001600020549050919050565b611bbf61248b565b611bc96000612bc4565b565b6000600a54905090565b600f6020528060005260406000206000915090505481565b611bf561248b565b6000600b60008381526020019081526020016000205411611c4b576040517f08c379a0000000000000000000000000000000000000000000000000000000008152600401611c4290613f5a565b60405180910390fd5b6000600c600083815260200190815260200160002060006101000a81548160ff02191690831515021790555050565b6000600760009054906101000a900473ffffffffffffffffffffffffffffffffffffffff16905090565b606060018054611cb390613edd565b80601f0160208091040260200160405190810160405280929190818152602001828054611cdf90613edd565b8015611d2c5780601f10611d0157610100808354040283529160200191611d2c565b820191906000526020600020905b815481529060010190602001808311611d0f57829003601f168201915b5050505050905090565b611d48611d41612554565b8383612c8a565b5050565b61010081565b611d63611d5d612554565b836126a2565b611da2576040517f08c379a0000000000000000000000000000000000000000000000000000000008152600401611d99906142db565b60405180910390fd5b611dae84848484612df6565b50505050565b611dbc61248b565b6000600b60008481526020019081526020016000205411611e12576040517f08c379a0000000000000000000000000000000000000000000000000000000008152600401611e0990613f5a565b60405180910390fd5b80600b6000848152602001908152602001600020819055505050565b6060611e3982612e52565b611e78576040517f08c379a0000000000000000000000000000000000000000000000000000000008152600401611e6f906148bd565b60405180910390fd5b6000601160008481526020019081526020016000205490506000600e60008381526020019081526020016000206040518060c00160405290816000820160009054906101000a900473ffffffffffffffffffffffffffffffffffffffff1673ffffffffffffffffffffffffffffffffffffffff1673ffffffffffffffffffffffffffffffffffffffff168152602001600182015481526020016002820154815260200160038201548152602001600482015481526020016005820160009054906101000a900460ff166004811115611f5357611f5261389d565b5b6004811115611f6557611f6461389d565b5b815250509050606060006004811115611f8157611f8061389d565b5b8260a001516004811115611f9857611f9761389d565b5b03611fda576040518060400160405280600781526020017f50656e64696e6700000000000000000000000000000000000000000000000000815250905061215d565b60016004811115611fee57611fed61389d565b5b8260a0015160048111156120055761200461389d565b5b03612047576040518060400160405280600981526020017f436f6e6669726d65640000000000000000000000000000000000000000000000815250905061215c565b6002600481111561205b5761205a61389d565b5b8260a0015160048111156120725761207161389d565b5b036120b4576040518060400160405280600981526020017f43616e63656c6c65640000000000000000000000000000000000000000000000815250905061215b565b600360048111156120c8576120c761389d565b5b8260a0015160048111156120df576120de61389d565b5b03612121576040518060400160405280600981526020017f436f6d706c657465640000000000000000000000000000000000000000000000815250905061215a565b6040518060400160405280600781526020017f556e6b6e6f776e0000000000000000000000000000000000000000000000000081525090505b5b5b5b600061216884612e93565b6121758460200151612e93565b61217e86612e93565b60405160200161219093929190614b2d565b6040516020818303038152906040529050806121af8460200151612e93565b6040516020016121c0929190614c69565b6040516020818303038152906040529050806121df8460800151612e93565b6040516020016121f0929190614d15565b60405160208183030381529060405290508082604051602001612214929190614de7565b6040516020818303038152906040529050806040516020016122369190614e6d565b6040516020818303038152906040529050806040516020016122589190614edb565b604051602081830303815290604052945050505050919050565b600c6020528060005260406000206000915054906101000a900460ff1681565b6000600560008473ffffffffffffffffffffffffffffffffffffffff1673ffffffffffffffffffffffffffffffffffffffff16815260200190815260200160002060008373ffffffffffffffffffffffffffffffffffffffff1673ffffffffffffffffffffffffffffffffffffffff16815260200190815260200160002060009054906101000a900460ff16905092915050565b61232e61248b565b600073ffffffffffffffffffffffffffffffffffffffff168173ffffffffffffffffffffffffffffffffffffffff160361239d576040517f08c379a000000000000000000000000000000000000000000000000000000000815260040161239490614f6f565b60405180910390fd5b6123a681612bc4565b50565b60007f80ac58cd000000000000000000000000000000000000000000000000000000007bffffffffffffffffffffffffffffffffffffffffffffffffffffffff1916827bffffffffffffffffffffffffffffffffffffffffffffffffffffffff1916148061247457507f5b5e139f000000000000000000000000000000000000000000000000000000007bffffffffffffffffffffffffffffffffffffffffffffffffffffffff1916827bffffffffffffffffffffffffffffffffffffffffffffffffffffffff1916145b80612484575061248382612ff9565b5b9050919050565b612493612554565b73ffffffffffffffffffffffffffffffffffffffff166124b1611c7a565b73ffffffffffffffffffffffffffffffffffffffff1614612507576040517f08c379a00000000000000000000000000000000000000000000000000000000081526004016124fe90614fdb565b60405180910390fd5b565b61251281612e52565b612551576040517f08c379a0000000000000000000000000000000000000000000000000000000008152600401612548906143f2565b60405180910390fd5b50565b600033905090565b816004600083815260200190815260200160002060006101000a81548173ffffffffffffffffffffffffffffffffffffffff021916908373ffffffffffffffffffffffffffffffffffffffff160217905550808273ffffffffffffffffffffffffffffffffffffffff166125cf8361152a565b73ffffffffffffffffffffffffffffffffffffffff167f8c5be1e5ebec7d5bd14f71427d1e84f3dd0314c0f7b2291e5b200ac8c7c3b92560405160405180910390a45050565b60026008540361265a576040517f08c379a000000000000000000000000000000000000000000000000000000000815260040161265190615047565b60405180910390fd5b6002600881905550565b60008290505b818110156126925761267c8482613063565b620151808161268b919061432a565b905061266a565b50505050565b6001600881905550565b6000806126ae8361152a565b90508073ffffffffffffffffffffffffffffffffffffffff168473ffffffffffffffffffffffffffffffffffffffff1614806126f057506126ef8185612292565b5b8061272e57508373ffffffffffffffffffffffffffffffffffffffff1661271684610bc2565b73ffffffffffffffffffffffffffffffffffffffff16145b91505092915050565b8273ffffffffffffffffffffffffffffffffffffffff166127578261152a565b73ffffffffffffffffffffffffffffffffffffffff16146127ad576040517f08c379a00000000000000000000000000000000000000000000000000000000081526004016127a4906150d9565b60405180910390fd5b600073ffffffffffffffffffffffffffffffffffffffff168273ffffffffffffffffffffffffffffffffffffffff160361281c576040517f08c379a00000000000000000000000000000000000000000000000000000000081526004016128139061516b565b60405180910390fd5b61282983838360016130b0565b8273ffffffffffffffffffffffffffffffffffffffff166128498261152a565b73ffffffffffffffffffffffffffffffffffffffff161461289f576040517f08c379a0000000000000000000000000000000000000000000000000000000008152600401612896906150d9565b60405180910390fd5b6004600082815260200190815260200160002060006101000a81549073ffffffffffffffffffffffffffffffffffffffff02191690556001600360008573ffffffffffffffffffffffffffffffffffffffff1673ffffffffffffffffffffffffffffffffffffffff168152602001908152602001600020600082825403925050819055506001600360008473ffffffffffffffffffffffffffffffffffffffff1673ffffffffffffffffffffffffffffffffffffffff16815260200190815260200160002060008282540192505081905550816002600083815260200190815260200160002060006101000a81548173ffffffffffffffffffffffffffffffffffffffff021916908373ffffffffffffffffffffffffffffffffffffffff160217905550808273ffffffffffffffffffffffffffffffffffffffff168473ffffffffffffffffffffffffffffffffffffffff167fddf252ad1be2c89b69c2b068fc378daa952ba7f163c4a11628f55a4df523b3ef60405160405180910390a4612a2b83838360016130b6565b505050565b6000806000612a3e846130bc565b9150915060018082600d6000898152602001908152602001600020600086815260200190815260200160002054901c16149250505092915050565b612a93828260405180602001604052806000815250613107565b5050565b612aa082612e52565b612adf576040517f08c379a0000000000000000000000000000000000000000000000000000000008152600401612ad6906151fd565b60405180910390fd5b80600660008481526020019081526020016000209081612aff91906153c9565b507ff8e1a15aba9398e019f0b49df1a4fde98ee17ae345cb5f6b5e2c27f5033e8ce782604051612b2f9190613708565b60405180910390a15050565b60006002600083815260200190815260200160002060009054906101000a900473ffffffffffffffffffffffffffffffffffffffff169050919050565b600080612b84836130bc565b91509150806001901b600d600086815260200190815260200160002060008481526020019081526020016000206000828254179250508190555050505050565b6000600760009054906101000a900473ffffffffffffffffffffffffffffffffffffffff16905081600760006101000a81548173ffffffffffffffffffffffffffffffffffffffff021916908373ffffffffffffffffffffffffffffffffffffffff1602179055508173ffffffffffffffffffffffffffffffffffffffff168173ffffffffffffffffffffffffffffffffffffffff167f8be0079c531659141344cd1fd0a4f28419497f9722a3daafe3b4186f6b6457e060405160405180910390a35050565b8173ffffffffffffffffffffffffffffffffffffffff168373ffffffffffffffffffffffffffffffffffffffff1603612cf8576040517f08c379a0000000000000000000000000000000000000000000000000000000008152600401612cef906154e7565b60405180910390fd5b80600560008573ffffffffffffffffffffffffffffffffffffffff1673ffffffffffffffffffffffffffffffffffffffff16815260200190815260200160002060008473ffffffffffffffffffffffffffffffffffffffff1673ffffffffffffffffffffffffffffffffffffffff16815260200190815260200160002060006101000a81548160ff0219169083151502179055508173ffffffffffffffffffffffffffffffffffffffff168373ffffffffffffffffffffffffffffffffffffffff167f17307eab39ab6107e8899845ad3d59bd9653f200f220920489ca2b5937696c3183604051612de9919061363b565b60405180910390a3505050565b612e01848484612737565b612e0d84848484613162565b612e4c576040517f08c379a0000000000000000000000000000000000000000000000000000000008152600401612e4390615579565b60405180910390fd5b50505050565b60008073ffffffffffffffffffffffffffffffffffffffff16612e7483612b3b565b73ffffffffffffffffffffffffffffffffffffffff1614159050919050565b606060008203612eda576040518060400160405280600181526020017f30000000000000000000000000000000000000000000000000000000000000008152509050612ff4565b600082905060005b60008214612f0c578080612ef59061435e565b915050600a82612f0591906155c8565b9150612ee2565b60008167ffffffffffffffff811115612f2857612f27613be8565b5b6040519080825280601f01601f191660200182016040528015612f5a5781602001600182028036833780820191505090505b50905060008290508593505b60008414612fec57600a84612f7b91906155f9565b6030612f87919061432a565b60f81b8282612f959061562a565b92508281518110612fa957612fa8615653565b5b60200101907effffffffffffffffffffffffffffffffffffffffffffffffffffffffffffff1916908160001a905350600a84612fe591906155c8565b9350612f66565b819450505050505b919050565b60007f01ffc9a7000000000000000000000000000000000000000000000000000000007bffffffffffffffffffffffffffffffffffffffffffffffffffffffff1916827bffffffffffffffffffffffffffffffffffffffffffffffffffffffff1916149050919050565b60008061306f836130bc565b91509150806001901b19600d600086815260200190815260200160002060008481526020019081526020016000206000828254169250508190555050505050565b50505050565b50505050565b6000806000620151806367748580856130d59190614758565b6130df91906155c8565b9050610100816130ef91906155c8565b9250610100816130ff91906155f9565b915050915091565b61311183836132e9565b61311e6000848484613162565b61315d576040517f08c379a000000000000000000000000000000000000000000000000000000000815260040161315490615579565b60405180910390fd5b505050565b60006131838473ffffffffffffffffffffffffffffffffffffffff16613506565b156132dc578373ffffffffffffffffffffffffffffffffffffffff1663150b7a026131ac612554565b8786866040518563ffffffff1660e01b81526004016131ce94939291906156d7565b6020604051808303816000875af192505050801561320a57506040513d601f19601f820116820180604052508101906132079190615738565b60015b61328c573d806000811461323a576040519150601f19603f3d011682016040523d82523d6000602084013e61323f565b606091505b506000815103613284576040517f08c379a000000000000000000000000000000000000000000000000000000000815260040161327b90615579565b60405180910390fd5b805181602001fd5b63150b7a0260e01b7bffffffffffffffffffffffffffffffffffffffffffffffffffffffff1916817bffffffffffffffffffffffffffffffffffffffffffffffffffffffff1916149150506132e1565b600190505b949350505050565b600073ffffffffffffffffffffffffffffffffffffffff168273ffffffffffffffffffffffffffffffffffffffff1603613358576040517f08c379a000000000000000000000000000000000000000000000000000000000815260040161334f906157b1565b60405180910390fd5b61336181612e52565b156133a1576040517f08c379a00000000000000000000000000000000000000000000000000000000081526004016133989061581d565b60405180910390fd5b6133af6000838360016130b0565b6133b881612e52565b156133f8576040517f08c379a00000000000000000000000000000000000000000000000000000000081526004016133ef9061581d565b60405180910390fd5b6001600360008473ffffffffffffffffffffffffffffffffffffffff1673ffffffffffffffffffffffffffffffffffffffff16815260200190815260200160002060008282540192505081905550816002600083815260200190815260200160002060006101000a81548173ffffffffffffffffffffffffffffffffffffffff021916908373ffffffffffffffffffffffffffffffffffffffff160217905550808273ffffffffffffffffffffffffffffffffffffffff16600073ffffffffffffffffffffffffffffffffffffffff167fddf252ad1be2c89b69c2b068fc378daa952ba7f163c4a11628f55a4df523b3ef60405160405180910390a46135026000838360016130b6565b5050565b6000808273ffffffffffffffffffffffffffffffffffffffff163b119050919050565b6040518060c00160405280600073ffffffffffffffffffffffffffffffffffffffff16815260200160008152602001600081526020016000815260200160008152602001600060048111156135815761358061389d565b5b81525090565b6000604051905090565b600080fd5b600080fd5b60007fffffffff0000000000000000000000000000000000000000000000000000000082169050919050565b6135d08161359b565b81146135db57600080fd5b50565b6000813590506135ed816135c7565b92915050565b60006020828403121561360957613608613591565b5b6000613617848285016135de565b91505092915050565b60008115159050919050565b61363581613620565b82525050565b6000602082019050613650600083018461362c565b92915050565b6000819050919050565b61366981613656565b811461367457600080fd5b50565b60008135905061368681613660565b92915050565b600080604083850312156136a3576136a2613591565b5b60006136b185828601613677565b92505060206136c285828601613677565b9150509250929050565b6000602082840312156136e2576136e1613591565b5b60006136f084828501613677565b91505092915050565b61370281613656565b82525050565b600060208201905061371d60008301846136f9565b92915050565b600081519050919050565b600082825260208201905092915050565b60005b8381101561375d578082015181840152602081019050613742565b60008484015250505050565b6000601f19601f8301169050919050565b600061378582613723565b61378f818561372e565b935061379f81856020860161373f565b6137a881613769565b840191505092915050565b600060208201905081810360008301526137cd818461377a565b905092915050565b600073ffffffffffffffffffffffffffffffffffffffff82169050919050565b6000613800826137d5565b9050919050565b613810816137f5565b82525050565b600060208201905061382b6000830184613807565b92915050565b61383a816137f5565b811461384557600080fd5b50565b60008135905061385781613831565b92915050565b6000806040838503121561387457613873613591565b5b600061388285828601613848565b925050602061389385828601613677565b9150509250929050565b7f4e487b7100000000000000000000000000000000000000000000000000000000600052602160045260246000fd5b600581106138dd576138dc61389d565b5b50565b60008190506138ee826138cc565b919050565b60006138fe826138e0565b9050919050565b61390e816138f3565b82525050565b600060c0820190506139296000830189613807565b61393660208301886136f9565b61394360408301876136f9565b61395060608301866136f9565b61395d60808301856136f9565b61396a60a0830184613905565b979650505050505050565b60008060006060848603121561398e5761398d613591565b5b600061399c86828701613848565b93505060206139ad86828701613848565b92505060406139be86828701613677565b9150509250925092565b6000806000606084860312156139e1576139e0613591565b5b60006139ef86828701613677565b9350506020613a0086828701613677565b9250506040613a1186828701613677565b9150509250925092565b60008060008060808587031215613a3557613a34613591565b5b6000613a4387828801613677565b9450506020613a5487828801613677565b9350506040613a6587828801613677565b9250506060613a7687828801613677565b91505092959194509250565b613a8b816137f5565b82525050565b613a9a81613656565b82525050565b613aa9816138f3565b82525050565b60c082016000820151613ac56000850182613a82565b506020820151613ad86020850182613a91565b506040820151613aeb6040850182613a91565b506060820151613afe6060850182613a91565b506080820151613b116080850182613a91565b5060a0820151613b2460a0850182613aa0565b50505050565b600060c082019050613b3f6000830184613aaf565b92915050565b600060208284031215613b5b57613b5a613591565b5b6000613b6984828501613848565b91505092915050565b613b7b81613620565b8114613b8657600080fd5b50565b600081359050613b9881613b72565b92915050565b60008060408385031215613bb557613bb4613591565b5b6000613bc385828601613848565b9250506020613bd485828601613b89565b9150509250929050565b600080fd5b600080fd5b7f4e487b7100000000000000000000000000000000000000000000000000000000600052604160045260246000fd5b613c2082613769565b810181811067ffffffffffffffff82111715613c3f57613c3e613be8565b5b80604052505050565b6000613c52613587565b9050613c5e8282613c17565b919050565b600067ffffffffffffffff821115613c7e57613c7d613be8565b5b613c8782613769565b9050602081019050919050565b82818337600083830152505050565b6000613cb6613cb184613c63565b613c48565b905082815260208101848484011115613cd257613cd1613be3565b5b613cdd848285613c94565b509392505050565b600082601f830112613cfa57613cf9613bde565b5b8135613d0a848260208601613ca3565b91505092915050565b60008060008060808587031215613d2d57613d2c613591565b5b6000613d3b87828801613848565b9450506020613d4c87828801613848565b9350506040613d5d87828801613677565b925050606085013567ffffffffffffffff811115613d7e57613d7d613596565b5b613d8a87828801613ce5565b91505092959194509250565b60008060408385031215613dad57613dac613591565b5b6000613dbb85828601613848565b9250506020613dcc85828601613848565b9150509250929050565b7f50726f706572747920616c726561647920657869737473000000000000000000600082015250565b6000613e0c60178361372e565b9150613e1782613dd6565b602082019050919050565b60006020820190508181036000830152613e3b81613dff565b9050919050565b7f5072696365206d7573742062652067726561746572207468616e203000000000600082015250565b6000613e78601c8361372e565b9150613e8382613e42565b602082019050919050565b60006020820190508181036000830152613ea781613e6b565b9050919050565b7f4e487b7100000000000000000000000000000000000000000000000000000000600052602260045260246000fd5b60006002820490506001821680613ef557607f821691505b602082108103613f0857613f07613eae565b5b50919050565b7f50726f706572747920646f6573206e6f74206578697374000000000000000000600082015250565b6000613f4460178361372e565b9150613f4f82613f0e565b602082019050919050565b60006020820190508181036000830152613f7381613f37565b9050919050565b7f4552433732313a20617070726f76616c20746f2063757272656e74206f776e6560008201527f7200000000000000000000000000000000000000000000000000000000000000602082015250565b6000613fd660218361372e565b9150613fe182613f7a565b604082019050919050565b6000602082019050818103600083015261400581613fc9565b9050919050565b7f4552433732313a20617070726f76652063616c6c6572206973206e6f7420746f60008201527f6b656e206f776e6572206f7220617070726f76656420666f7220616c6c000000602082015250565b6000614068603d8361372e565b91506140738261400c565b604082019050919050565b600060208201905081810360008301526140978161405b565b9050919050565b7f4e6f7420626f6f6b696e67206f776e6572000000000000000000000000000000600082015250565b60006140d460118361372e565b91506140df8261409e565b602082019050919050565b60006020820190508181036000830152614103816140c7565b9050919050565b7f43616e6e6f742063616e63656c207468697320626f6f6b696e67000000000000600082015250565b6000614140601a8361372e565b915061414b8261410a565b602082019050919050565b6000602082019050818103600083015261416f81614133565b9050919050565b600060208201905061418b6000830184613905565b92915050565b7f43616e6e6f7420636f6d706c657465207468697320626f6f6b696e6700000000600082015250565b60006141c7601c8361372e565b91506141d282614191565b602082019050919050565b600060208201905081810360008301526141f6816141ba565b9050919050565b7f426f6f6b696e6720686173206e6f7420656e6465642079657400000000000000600082015250565b600061423360198361372e565b915061423e826141fd565b602082019050919050565b6000602082019050818103600083015261426281614226565b9050919050565b7f4552433732313a2063616c6c6572206973206e6f7420746f6b656e206f776e6560008201527f72206f7220617070726f76656400000000000000000000000000000000000000602082015250565b60006142c5602d8361372e565b91506142d082614269565b604082019050919050565b600060208201905081810360008301526142f4816142b8565b9050919050565b7f4e487b7100000000000000000000000000000000000000000000000000000000600052601160045260246000fd5b600061433582613656565b915061434083613656565b9250828201905080821115614358576143576142fb565b5b92915050565b600061436982613656565b91507fffffffffffffffffffffffffffffffffffffffffffffffffffffffffffffffff820361439b5761439a6142fb565b5b600182019050919050565b7f4552433732313a20696e76616c696420746f6b656e2049440000000000000000600082015250565b60006143dc60188361372e565b91506143e7826143a6565b602082019050919050565b6000602082019050818103600083015261440b816143cf565b9050919050565b7f53746172742064617465206d7573742062652061667465722063757272656e7460008201527f20626c6f636b2074696d65000000000000000000000000000000000000000000602082015250565b600061446e602b8361372e565b915061447982614412565b604082019050919050565b6000602082019050818103600083015261449d81614461565b9050919050565b7f456e642064617465206d7573742062652061667465722073746172742064617460008201527f6500000000000000000000000000000000000000000000000000000000000000602082015250565b600061450060218361372e565b915061450b826144a4565b604082019050919050565b6000602082019050818103600083015261452f816144f3565b9050919050565b7f50726f7065727479206973206e6f742061637469766500000000000000000000600082015250565b600061456c60168361372e565b915061457782614536565b602082019050919050565b6000602082019050818103600083015261459b8161455f565b9050919050565b7f426f6f6b696e672074696d65206f7665726c617073207769746820657869737460008201527f696e67206f6e6500000000000000000000000000000000000000000000000000602082015250565b60006145fe60278361372e565b9150614609826145a2565b604082019050919050565b6000602082019050818103600083015261462d816145f1565b9050919050565b7f426f6f6b696e6720616d6f756e7420646f6573206e6f74206d6174636820707260008201527f6f70657274792070726963650000000000000000000000000000000000000000602082015250565b6000614690602c8361372e565b915061469b82614634565b604082019050919050565b600060208201905081810360008301526146bf81614683565b9050919050565b7f53656e742076616c7565206973206c657373207468616e20626f6f6b696e672060008201527f616d6f756e740000000000000000000000000000000000000000000000000000602082015250565b600061472260268361372e565b915061472d826146c6565b604082019050919050565b6000602082019050818103600083015261475181614715565b9050919050565b600061476382613656565b915061476e83613656565b9250828203905081811115614786576147856142fb565b5b92915050565b600060a0820190506147a160008301886136f9565b6147ae60208301876136f9565b6147bb60408301866136f9565b6147c860608301856136f9565b6147d56080830184613905565b9695505050505050565b7f4552433732313a2061646472657373207a65726f206973206e6f74206120766160008201527f6c6964206f776e65720000000000000000000000000000000000000000000000602082015250565b600061483b60298361372e565b9150614846826147df565b604082019050919050565b6000602082019050818103600083015261486a8161482e565b9050919050565b7f4e465420646f6573206e6f742065786973740000000000000000000000000000600082015250565b60006148a760128361372e565b91506148b282614871565b602082019050919050565b600060208201905081810360008301526148d68161489a565b9050919050565b600081905092915050565b7f7b226e616d65223a22426f6f6b696e67204e4654202300000000000000000000600082015250565b600061491e6016836148dd565b9150614929826148e8565b601682019050919050565b600061493f82613723565b61494981856148dd565b935061495981856020860161373f565b80840191505092915050565b7f222c000000000000000000000000000000000000000000000000000000000000600082015250565b600061499b6002836148dd565b91506149a682614965565b600282019050919050565b7f226465736372697074696f6e223a225265616c2045737461746520426f6f6b6960008201527f6e67204e4654202d2050726f7065727479202300000000000000000000000000602082015250565b6000614a0d6033836148dd565b9150614a18826149b1565b603382019050919050565b7f22696d616765223a2268747470733a2f2f70696373756d2e70686f746f732f7360008201527f6565642f00000000000000000000000000000000000000000000000000000000602082015250565b6000614a7f6024836148dd565b9150614a8a82614a23565b602482019050919050565b7f2f3430302f333030222c00000000000000000000000000000000000000000000600082015250565b6000614acb600a836148dd565b9150614ad682614a95565b600a82019050919050565b7f2261747472696275746573223a5b000000000000000000000000000000000000600082015250565b6000614b17600e836148dd565b9150614b2282614ae1565b600e82019050919050565b6000614b3882614911565b9150614b448286614934565b9150614b4f8261498e565b9150614b5a82614a00565b9150614b668285614934565b9150614b718261498e565b9150614b7c82614a72565b9150614b888284614934565b9150614b9382614abe565b9150614b9e82614b0a565b9150819050949350505050565b7f7b2274726169745f74797065223a2250726f7065727479204944222c2264697360008201527f706c61795f74797065223a226e756d626572222c2276616c7565223a00000000602082015250565b6000614c07603c836148dd565b9150614c1282614bab565b603c82019050919050565b7f7d2c000000000000000000000000000000000000000000000000000000000000600082015250565b6000614c536002836148dd565b9150614c5e82614c1d565b600282019050919050565b6000614c758285614934565b9150614c8082614bfa565b9150614c8c8284614934565b9150614c9782614c46565b91508190509392505050565b7f7b2274726169745f74797065223a22416d6f756e7420576569222c226469737060008201527f6c61795f74797065223a226e756d626572222c2276616c7565223a0000000000602082015250565b6000614cff603b836148dd565b9150614d0a82614ca3565b603b82019050919050565b6000614d218285614934565b9150614d2c82614cf2565b9150614d388284614934565b9150614d4382614c46565b91508190509392505050565b7f7b2274726169745f74797065223a22537461747573222c2276616c7565223a22600082015250565b6000614d856020836148dd565b9150614d9082614d4f565b602082019050919050565b7f227d000000000000000000000000000000000000000000000000000000000000600082015250565b6000614dd16002836148dd565b9150614ddc82614d9b565b600282019050919050565b6000614df38285614934565b9150614dfe82614d78565b9150614e0a8284614934565b9150614e1582614dc4565b91508190509392505050565b7f5d7d000000000000000000000000000000000000000000000000000000000000600082015250565b6000614e576002836148dd565b9150614e6282614e21565b600282019050919050565b6000614e798284614934565b9150614e8482614e4a565b915081905092915050565b7f646174613a6170706c69636174696f6e2f6a736f6e2c00000000000000000000600082015250565b6000614ec56016836148dd565b9150614ed082614e8f565b601682019050919050565b6000614ee682614eb8565b9150614ef28284614934565b915081905092915050565b7f4f776e61626c653a206e6577206f776e657220697320746865207a65726f206160008201527f6464726573730000000000000000000000000000000000000000000000000000602082015250565b6000614f5960268361372e565b9150614f6482614efd565b604082019050919050565b60006020820190508181036000830152614f8881614f4c565b9050919050565b7f4f776e61626c653a2063616c6c6572206973206e6f7420746865206f776e6572600082015250565b6000614fc560208361372e565b9150614fd082614f8f565b602082019050919050565b60006020820190508181036000830152614ff481614fb8565b9050919050565b7f5265656e7472616e637947756172643a207265656e7472616e742063616c6c00600082015250565b6000615031601f8361372e565b915061503c82614ffb565b602082019050919050565b6000602082019050818103600083015261506081615024565b9050919050565b7f4552433732313a207472616e736665722066726f6d20696e636f72726563742060008201527f6f776e6572000000000000000000000000000000000000000000000000000000602082015250565b60006150c360258361372e565b91506150ce82615067565b604082019050919050565b600060208201905081810360008301526150f2816150b6565b9050919050565b7f4552433732313a207472616e7366657220746f20746865207a65726f2061646460008201527f7265737300000000000000000000000000000000000000000000000000000000602082015250565b600061515560248361372e565b9150615160826150f9565b604082019050919050565b6000602082019050818103600083015261518481615148565b9050919050565b7f45524337323155524953746f726167653a2055524920736574206f66206e6f6e60008201527f6578697374656e7420746f6b656e000000000000000000000000000000000000602082015250565b60006151e7602e8361372e565b91506151f28261518b565b604082019050919050565b60006020820190508181036000830152615216816151da565b9050919050565b60008190508160005260206000209050919050565b60006020601f8301049050919050565b600082821b905092915050565b60006008830261527f7fffffffffffffffffffffffffffffffffffffffffffffffffffffffffffffffff82615242565b6152898683615242565b95508019841693508086168417925050509392505050565b6000819050919050565b60006152c66152c16152bc84613656565b6152a1565b613656565b9050919050565b6000819050919050565b6152e0836152ab565b6152f46152ec826152cd565b84845461524f565b825550505050565b600090565b6153096152fc565b6153148184846152d7565b505050565b5b818110156153385761532d600082615301565b60018101905061531a565b5050565b601f82111561537d5761534e8161521d565b61535784615232565b81016020851015615366578190505b61537a61537285615232565b830182615319565b50505b505050565b600082821c905092915050565b60006153a060001984600802615382565b1980831691505092915050565b60006153b9838361538f565b9150826002028217905092915050565b6153d282613723565b67ffffffffffffffff8111156153eb576153ea613be8565b5b6153f58254613edd565b61540082828561533c565b600060209050601f8311600181146154335760008415615421578287015190505b61542b85826153ad565b865550615493565b601f1984166154418661521d565b60005b8281101561546957848901518255600182019150602085019450602081019050615444565b868310156154865784890151615482601f89168261538f565b8355505b6001600288020188555050505b505050505050565b7f4552433732313a20617070726f766520746f2063616c6c657200000000000000600082015250565b60006154d160198361372e565b91506154dc8261549b565b602082019050919050565b60006020820190508181036000830152615500816154c4565b9050919050565b7f4552433732313a207472616e7366657220746f206e6f6e20455243373231526560008201527f63656976657220696d706c656d656e7465720000000000000000000000000000602082015250565b600061556360328361372e565b915061556e82615507565b604082019050919050565b6000602082019050818103600083015261559281615556565b9050919050565b7f4e487b7100000000000000000000000000000000000000000000000000000000600052601260045260246000fd5b60006155d382613656565b91506155de83613656565b9250826155ee576155ed615599565b5b828204905092915050565b600061560482613656565b915061560f83613656565b92508261561f5761561e615599565b5b828206905092915050565b600061563582613656565b915060008203615648576156476142fb565b5b600182039050919050565b7f4e487b7100000000000000000000000000000000000000000000000000000000600052603260045260246000fd5b600081519050919050565b600082825260208201905092915050565b60006156a982615682565b6156b3818561568d565b93506156c381856020860161373f565b6156cc81613769565b840191505092915050565b60006080820190506156ec6000830187613807565b6156f96020830186613807565b61570660408301856136f9565b8181036060830152615718818461569e565b905095945050505050565b600081519050615732816135c7565b92915050565b60006020828403121561574e5761574d613591565b5b600061575c84828501615723565b91505092915050565b7f4552433732313a206d696e7420746f20746865207a65726f2061646472657373600082015250565b600061579b60208361372e565b91506157a682615765565b602082019050919050565b600060208201905081810360008301526157ca8161578e565b9050919050565b7f4552433732313a20746f6b656e20616c7265616479206d696e74656400000000600082015250565b6000615807601c8361372e565b9150615812826157d1565b602082019050919050565b60006020820190508181036000830152615836816157fa565b905091905056fea2646970667358221220ce45f6954dd4f0ad55554afcc3732b10f5a9612ee4660a2d6898c357012f8fde64736f6c63430008140033",
  "linkReferences": {},
  "deployedLinkReferences": {}
}