{
  "_format": "hh-sol-artifact-1",
  "contractName": "BookingContract",
  "sourceName": "contracts/BookingContract.sol",
  "abi": [
    {
      "inputs": [],
      "stateMutability": "nonpayable",
      "type": "constructor"
    },
    {
      "anonymous": false,
      "inputs": [
        {
          "indexed": true,
          "internalType": "address",
          "name": "owner",
          "type": "address"
        },
        {
          "indexed": true,
          "internalType": "address",
          "name": "approved",
          "type": "address"
        },
        {
          "indexed": true,
          "internalType": "uint256",
          "name": "tokenId",
          "type": "uint256"
        }
      ],
      "name": "Approval",
      "type": "event"
    },
    {
      "anonymous": false,
      "inputs": [
        {
          "indexed": true,
          "internalType": "address",
          "name": "owner",
          "type": "address"
        },
        {
          "indexed": true,
          "internalType": "address",
          "name": "operator",
          "type": "address"
        },
        {
          "indexed": false,
          "internalType": "bool",
          "name": "approved",
          "type": "bool"
        }
      ],
      "name": "ApprovalForAll",
      "type": "event"
    },
    {
      "anonymous": false,
      "inputs": [
        {
          "indexed": false,
          "internalType": "uint256",
          "name": "_fromTokenId",
          "type": "uint256"
        },
        {
          "indexed": false,
          "internalType": "uint256",
          "name": "_toTokenId",
          "type": "uint256"
        }
      ],
      "name": "BatchMetadataUpdate",
      "type": "event"
    },
    {
      "anonymous": false,
      "inputs": [
        {
          "indexed": true,
          "internalType": "uint256",
          "name": "bookingId",
          "type": "uint256"
        },
        {
          "indexed": true,
          "internalType": "address",
          "name": "user",
          "type": "address"
        },
        {
          "indexed": false,
          "internalType": "enum BookingContract.BookingStatus",
          "name": "status",
          "type": "uint8"
        }
      ],
      "name": "BookingCancelled",
      "type": "event"
    },
    {
      "anonymous": false,
      "inputs": [
        {
          "indexed": true,
          "internalType": "uint256",
          "name": "bookingId",
          "type": "uint256"
        },
        {
          "indexed": true,
          "internalType": "address",
          "name": "user",
          "type": "address"
        },
        {
          "indexed": false,
          "internalType": "enum BookingContract.BookingStatus",
          "name": "status",
          "type": "uint8"
        }
      ],
      "name": "BookingCompleted",
      "type": "event"
    },
    {
      "anonymous": false,
      "inputs": [
        {
          "indexed": true,
          "internalType": "uint256",
          "name": "bookingId",
          "type": "uint256"
        },
        {
          "indexed": true,
          "internalType": "address",
          "name": "user",
          "type": "address"
        },
        {
          "indexed": false,
          "internalType": "uint256",
          "name": "propertyId",
          "type": "uint256"
        },
        {
          "indexed": false,
          "internalType": "uint256",
          "name": "startDate",
          "type": "uint256"
        },
        {
          "indexed": false,
          "internalType": "uint256",
          "name": "endDate",
          "type": "uint256"
        },
        {
          "indexed": false,
          "internalType": "uint256",
          "name": "amount",
          "type": "uint256"
        },
        {
          "indexed": false,
          "internalType": "enum BookingContract.BookingStatus",
          "name": "status",
          "type": "uint8"
        }
      ],
      "name": "BookingCreated",
      "type": "event"
    },
    {
      "anonymous": false,
      "inputs": [
        {
          "indexed": false,
          "internalType": "uint256",
          "name": "_tokenId",
          "type": "uint256"
        }
      ],
      "name": "MetadataUpdate",
      "type": "event"
    },
    {
      "anonymous": false,
      "inputs": [
        {
          "indexed": true,
          "internalType": "uint256",
          "name": "bookingId",
          "type": "uint256"
        },
        {
          "indexed": true,
          "internalType": "uint256",
          "name": "tokenId",
          "type": "uint256"
        },
        {
          "indexed": true,
          "internalType": "address",
          "name": "to",
          "type": "address"
        }
      ],
      "name": "NFTMinted",
      "type": "event"
    },
    {
      "anonymous": false,
      "inputs": [
        {
          "indexed": true,
          "internalType": "address",
          "name": "previousOwner",
          "type": "address"
        },
        {
          "indexed": true,
          "internalType": "address",
          "name": "newOwner",
          "type": "address"
        }
      ],
      "name": "OwnershipTransferred",
      "type": "event"
    },
    {
      "anonymous": false,
      "inputs": [
        {
          "indexed": true,
          "internalType": "uint256",
          "name": "propertyId",
          "type": "uint256"
        },
        {
          "indexed": false,
          "internalType": "uint256",
          "name": "price",
          "type": "uint256"
        }
      ],
      "name": "PropertyAdded",
      "type": "event"
    },
    {
      "anonymous": false,
      "inputs": [
        {
          "indexed": true,
          "internalType": "address",
          "name": "from",
          "type": "address"
        },
        {
          "indexed": true,
          "internalType": "address",
          "name": "to",
          "type": "address"
        },
        {
          "indexed": true,
          "internalType": "uint256",
          "name": "tokenId",
          "type": "uint256"
        }
      ],
      "name": "Transfer",
      "type": "event"
    },
    {
      "inputs": [
        {
          "internalType": "uint256",
          "name": "propertyId",
          "type": "uint256"
        }
      ],
      "name": "activateProperty",
      "outputs": [],
      "stateMutability": "nonpayable",
      "type": "function"
    },
    {
      "inputs": [
        {
          "internalType": "uint256",
          "name": "propertyId",
          "type": "uint256"
        },
        {
          "internalType": "uint256",
          "name": "price",
          "type": "uint256"
        }
      ],
      "name": "addProperty",
      "outputs": [],
      "stateMutability": "nonpayable",
      "type": "function"
    },
    {
      "inputs": [
        {
          "internalType": "address",
          "name": "to",
          "type": "address"
        },
        {
          "internalType": "uint256",
          "name": "tokenId",
          "type": "uint256"
        }
      ],
      "name": "approve",
      "outputs": [],
      "stateMutability": "nonpayable",
      "type": "function"
    },
    {
      "inputs": [
        {
          "internalType": "address",
          "name": "owner",
          "type": "address"
        }
      ],
      "name": "balanceOf",
      "outputs": [
        {
          "internalType": "uint256",
          "name": "",
          "type": "uint256"
        }
      ],
      "stateMutability": "view",
      "type": "function"
    },
    {
      "inputs": [
        {
          "internalType": "uint256",
          "name": "propertyId",
          "type": "uint256"
        },
        {
          "internalType": "uint256",
          "name": "startDate",
          "type": "uint256"
        },
        {
          "internalType": "uint256",
          "name": "endDate",
          "type": "uint256"
        },
        {
          "internalType": "uint256",
          "name": "amount",
          "type": "uint256"
        }
      ],
      "name": "book",
      "outputs": [],
      "stateMutability": "payable",
      "type": "function"
    },
    {
      "inputs": [
        {
          "internalType": "uint256",
          "name": "",
          "type": "uint256"
        }
      ],
      "name": "bookingPayments",
      "outputs": [
        {
          "internalType": "uint256",
          "name": "",
          "type": "uint256"
        }
      ],
      "stateMutability": "view",
      "type": "function"
    },
    {
      "inputs": [
        {
          "internalType": "uint256",
          "name": "",
          "type": "uint256"
        }
      ],
      "name": "bookingToNFT",
      "outputs": [
        {
          "internalType": "uint256",
          "name": "",
          "type": "uint256"
        }
      ],
      "stateMutability": "view",
      "type": "function"
    },
    {
      "inputs": [
        {
          "internalType": "uint256",
          "name": "",
          "type": "uint256"
        }
      ],
      "name": "bookings",
      "outputs": [
        {
          "internalType": "address",
          "name": "user",
          "type": "address"
        },
        {
          "internalType": "uint256",
          "name": "propertyId",
          "type": "uint256"
        },
        {
          "internalType": "uint256",
          "name": "startDate",
          "type": "uint256"
        },
        {
          "internalType": "uint256",
          "name": "endDate",
          "type": "uint256"
        },
        {
          "internalType": "uint256",
          "name": "amount",
          "type": "uint256"
        },
        {
          "internalType": "enum BookingContract.BookingStatus",
          "name": "status",
          "type": "uint8"
        }
      ],
      "stateMutability": "view",
      "type": "function"
    },
    {
      "inputs": [
        {
          "internalType": "uint256",
          "name": "bookingId",
          "type": "uint256"
        }
      ],
      "name": "cancelBooking",
      "outputs": [],
      "stateMutability": "nonpayable",
      "type": "function"
    },
    {
      "inputs": [
        {
          "internalType": "uint256",
          "name": "bookingId",
          "type": "uint256"
        }
      ],
      "name": "completeBooking",
      "outputs": [],
      "stateMutability": "nonpayable",
      "type": "function"
    },
    {
      "inputs": [
        {
          "internalType": "uint256",
          "name": "propertyId",
          "type": "uint256"
        }
      ],
      "name": "deactivateProperty",
      "outputs": [],
      "stateMutability": "nonpayable",
      "type": "function"
    },
    {
      "inputs": [
        {
          "internalType": "uint256",
          "name": "tokenId",
          "type": "uint256"
        }
      ],
      "name": "getApproved",
      "outputs": [
        {
          "internalType": "address",
          "name": "",
          "type": "address"
        }
      ],
      "stateMutability": "view",
      "type": "function"
    },
    {
      "inputs": [
        {
          "internalType": "uint256",
          "name": "bookingId",
          "type": "uint256"
        }
      ],
      "name": "getBooking",
      "outputs": [
        {
          "components": [
            {
              "internalType": "address",
              "name": "user",
              "type": "address"
            },
            {
              "internalType": "uint256",
              "name": "propertyId",
              "type": "uint256"
            },
            {
              "internalType": "uint256",
              "name": "startDate",
              "type": "uint256"
            },
            {
              "internalType": "uint256",
              "name": "endDate",
              "type": "uint256"
            },
            {
              "internalType": "uint256",
              "name": "amount",
              "type": "uint256"
            },
            {
              "internalType": "enum BookingContract.BookingStatus",
              "name": "status",
              "type": "uint8"
            }
          ],
          "internalType": "struct BookingContract.Booking",
          "name": "",
          "type": "tuple"
        }
      ],
      "stateMutability": "view",
      "type": "function"
    },
    {
      "inputs": [
        {
          "internalType": "address",
          "name": "owner",
          "type": "address"
        },
        {
          "internalType": "address",
          "name": "operator",
          "type": "address"
        }
      ],
      "name": "isApprovedForAll",
      "outputs": [
        {
          "internalType": "bool",
          "name": "",
          "type": "bool"
        }
      ],
      "stateMutability": "view",
      "type": "function"
    },
    {
      "inputs": [
        {
          "internalType": "address",
          "name": "to",
          "type": "address"
        },
        {
          "internalType": "uint256",
          "name": "bookingId",
          "type": "uint256"
        }
      ],
      "name": "mintBookingNFT",
      "outputs": [],
      "stateMutability": "nonpayable",
      "type": "function"
    },
    {
      "inputs": [],
      "name": "name",
      "outputs": [
        {
          "internalType": "string",
          "name": "",
          "type": "string"
        }
      ],
      "stateMutability": "view",
      "type": "function"
    },
    {
      "inputs": [
        {
          "internalType": "uint256",
          "name": "",
          "type": "uint256"
        }
      ],
      "name": "nftToBooking",
      "outputs": [
        {
          "internalType": "uint256",
          "name": "",
          "type": "uint256"
        }
      ],
      "stateMutability": "view",
      "type": "function"
    },
    {
      "inputs": [
        {
          "internalType": "uint256",
          "name": "propertyId",
          "type": "uint256"
        },
        {
          "internalType": "uint256",
          "name": "startDate",
          "type": "uint256"
        },
        {
          "internalType": "uint256",
          "name": "endDate",
          "type": "uint256"
        }
      ],
      "name": "overlapBooking",
      "outputs": [
        {
          "internalType": "bool",
          "name": "",
          "type": "bool"
        }
      ],
      "stateMutability": "view",
      "type": "function"
    },
    {
      "inputs": [],
      "name": "owner",
      "outputs": [
        {
          "internalType": "address",
          "name": "",
          "type": "address"
        }
      ],
      "stateMutability": "view",
      "type": "function"
    },
    {
      "inputs": [
        {
          "internalType": "uint256",
          "name": "tokenId",
          "type": "uint256"
        }
      ],
      "name": "ownerOf",
      "outputs": [
        {
          "internalType": "address",
          "name": "",
          "type": "address"
        }
      ],
      "stateMutability": "view",
      "type": "function"
    },
    {
      "inputs": [
        {
          "internalType": "uint256",
          "name": "",
          "type": "uint256"
        }
      ],
      "name": "propertyActive",
      "outputs": [
        {
          "internalType": "bool",
          "name": "",
          "type": "bool"
        }
      ],
      "stateMutability": "view",
      "type": "function"
    },
    {
      "inputs": [
        {
          "internalType": "uint256",
          "name": "",
          "type": "uint256"
        },
        {
          "internalType": "uint256",
          "name": "",
          "type": "uint256"
        }
      ],
      "name": "propertyDateBooked",
      "outputs": [
        {
          "internalType": "bool",
          "name": "",
          "type": "bool"
        }
      ],
      "stateMutability": "view",
      "type": "function"
    },
    {
      "inputs": [
        {
          "internalType": "uint256",
          "name": "propertyId",
          "type": "uint256"
        }
      ],
      "name": "propertyExists",
      "outputs": [
        {
          "internalType": "bool",
          "name": "",
          "type": "bool"
        }
      ],
      "stateMutability": "view",
      "type": "function"
    },
    {
      "inputs": [
        {
          "internalType": "uint256",
          "name": "",
          "type": "uint256"
        }
      ],
      "name": "propertyPrice",
      "outputs": [
        {
          "internalType": "uint256",
          "name": "",
          "type": "uint256"
        }
      ],
      "stateMutability": "view",
      "type": "function"
    },
    {
      "inputs": [],
      "name": "renounceOwnership",
      "outputs": [],
      "stateMutability": "nonpayable",
      "type": "function"
    },
    {
      "inputs": [
        {
          "internalType": "address",
          "name": "from",
          "type": "address"
        },
        {
          "internalType": "address",
          "name": "to",
          "type": "address"
        },
        {
          "internalType": "uint256",
          "name": "tokenId",
          "type": "uint256"
        }
      ],
      "name": "safeTransferFrom",
      "outputs": [],
      "stateMutability": "nonpayable",
      "type": "function"
    },
    {
      "inputs": [
        {
          "internalType": "address",
          "name": "from",
          "type": "address"
        },
        {
          "internalType": "address",
          "name": "to",
          "type": "address"
        },
        {
          "internalType": "uint256",
          "name": "tokenId",
          "type": "uint256"
        },
        {
          "internalType": "bytes",
          "name": "data",
          "type": "bytes"
        }
      ],
      "name": "safeTransferFrom",
      "outputs": [],
      "stateMutability": "nonpayable",
      "type": "function"
    },
    {
      "inputs": [
        {
          "internalType": "address",
          "name": "operator",
          "type": "address"
        },
        {
          "internalType": "bool",
          "name": "approved",
          "type": "bool"
        }
      ],
      "name": "setApprovalForAll",
      "outputs": [],
      "stateMutability": "nonpayable",
      "type": "function"
    },
    {
      "inputs": [
        {
          "internalType": "uint256",
          "name": "propertyId",
          "type": "uint256"
        },
        {
          "internalType": "uint256",
          "name": "price",
          "type": "uint256"
        }
      ],
      "name": "setPropertyPrice",
      "outputs": [],
      "stateMutability": "nonpayable",
      "type": "function"
    },
    {
      "inputs": [
        {
          "internalType": "bytes4",
          "name": "interfaceId",
          "type": "bytes4"
        }
      ],
      "name": "supportsInterface",
      "outputs": [
        {
          "internalType": "bool",
          "name": "",
          "type": "bool"
        }
      ],
      "stateMutability": "view",
      "type": "function"
    },
    {
      "inputs": [],
      "name": "symbol",
      "outputs": [
        {
          "internalType": "string",
          "name": "",
          "type": "string"
        }
      ],
      "stateMutability": "view",
      "type": "function"
    },
    {
      "inputs": [
        {
          "internalType": "uint256",
          "name": "tokenId",
          "type": "uint256"
        }
      ],
      "name": "tokenURI",
      "outputs": [
        {
          "internalType": "string",
          "name": "",
          "type": "string"
        }
      ],
      "stateMutability": "view",
      "type": "function"
    },
    {
      "inputs": [
        {
          "internalType": "address",
          "name": "from",
          "type": "address"
        },
        {
          "internalType": "address",
          "name": "to",
          "type": "address"
        },
        {
          "internalType": "uint256",
          "name": "tokenId",
          "type": "uint256"
        }
      ],
      "name": "transferFrom",
      "outputs": [],
      "stateMutability": "nonpayable",
      "type": "function"
    },
    {
      "inputs": [
        {
          "internalType": "address",
          "name": "newOwner",
          "type": "address"
        }
      ],
      "name": "transferOwnership",
      "outputs": [],
      "stateMutability": "nonpayable",
      "type": "function"
    },
    {
      "inputs": [],
      "name": "withdraw",
      "outputs": [],
      "stateMutability": "nonpayable",
      "type": "function"
    }
  ],
  "bytecode": "0x60806040523480156200001157600080fd5b506040518060400160405280601181526020017f5265616c457374617465426f6f6b696e670000000000000000000000000000008152506040518060400160405280600381526020017f524542000000000000000000000000000000000000000000000000000000000081525081600090816200008f91906200042a565b508060019081620000a191906200042a565b505050620000c4620000b8620000e260201b60201c565b620000ea60201b60201c565b600160088190555060016009819055506001600a8190555062000511565b600033905090565b6000600760009054906101000a900473ffffffffffffffffffffffffffffffffffffffff16905081600760006101000a81548173ffffffffffffffffffffffffffffffffffffffff021916908373ffffffffffffffffffffffffffffffffffffffff1602179055508173ffffffffffffffffffffffffffffffffffffffff168173ffffffffffffffffffffffffffffffffffffffff167f8be0079c531659141344cd1fd0a4f28419497f9722a3daafe3b4186f6b6457e060405160405180910390a35050565b600081519050919050565b7f4e487b7100000000000000000000000000000000000000000000000000000000600052604160045260246000fd5b7f4e487b7100000000000000000000000000000000000000000000000000000000600052602260045260246000fd5b600060028204905060018216806200023257607f821691505b602082108103620002485762000247620001ea565b5b50919050565b60008190508160005260206000209050919050565b60006020601f8301049050919050565b600082821b905092915050565b600060088302620002b27fffffffffffffffffffffffffffffffffffffffffffffffffffffffffffffffff8262000273565b620002be868362000273565b95508019841693508086168417925050509392505050565b6000819050919050565b6000819050919050565b60006200030b62000305620002ff84620002d6565b620002e0565b620002d6565b9050919050565b6000819050919050565b6200032783620002ea565b6200033f620003368262000312565b84845462000280565b825550505050565b600090565b6200035662000347565b620003638184846200031c565b505050565b5b818110156200038b576200037f6000826200034c565b60018101905062000369565b5050565b601f821115620003da57620003a4816200024e565b620003af8462000263565b81016020851015620003bf578190505b620003d7620003ce8562000263565b83018262000368565b50505b505050565b600082821c905092915050565b6000620003ff60001984600802620003df565b1980831691505092915050565b60006200041a8383620003ec565b9150826002028217905092915050565b6200043582620001b0565b67ffffffffffffffff811115620004515762000450620001bb565b5b6200045d825462000219565b6200046a8282856200038f565b600060209050601f831160018114620004a257600084156200048d578287015190505b6200049985826200040c565b86555062000509565b601f198416620004b2866200024e565b60005b82811015620004dc57848901518255600182019150602085019450602081019050620004b5565b86831015620004fc5784890151620004f8601f891682620003ec565b8355505b6001600288020188555050505b505050505050565b614ee380620005216000396000f3fe6080604052600436106102045760003560e01c80634baad801116101185780638da5cb5b116100a0578063beb8354c1161006f578063beb8354c146107b5578063c87b56dd146107de578063d7a647871461081b578063e985e9c514610858578063f2fde38b1461089557610204565b80638da5cb5b1461070d57806395d89b4114610738578063a22cb46514610763578063b88d4fde1461078c57610204565b80636a5c841a116100e75780636a5c841a1461061657806370a0823114610653578063715018a6146106905780637ab583e3146106a75780637ca28bc6146106e457610204565b80634baad8011461055757806353a242d9146105945780636352211e146105bd57806364b5d0a0146105fa57610204565b80630dca825e1161019b57806323b872dd1161016a57806323b872dd146104745780633ccfd60b1461049d578063411411dd146104b457806342842e0e146104f15780634a1647321461051a57610204565b80630dca825e146103a357806314050c5a146103cc5780631a2b3431146104095780631dab301e1461043257610204565b806306fdde03116101d757806306fdde03146102e9578063081812fc146103145780630891a48f14610351578063095ea7b31461037a57610204565b806301ffc9a71461020957806303b66f631461024657806304d28d8d1461026f5780630642f89e146102ac575b600080fd5b34801561021557600080fd5b50610230600480360381019061022b9190613182565b6108be565b60405161023d91906131ca565b60405180910390f35b34801561025257600080fd5b5061026d6004803603810190610268919061321b565b61091f565b005b34801561027b57600080fd5b506102966004803603810190610291919061325b565b610a40565b6040516102a39190613297565b60405180910390f35b3480156102b857600080fd5b506102d360048036038101906102ce919061321b565b610a58565b6040516102e091906131ca565b60405180910390f35b3480156102f557600080fd5b506102fe610a87565b60405161030b9190613342565b60405180910390f35b34801561032057600080fd5b5061033b6004803603810190610336919061325b565b610b19565b60405161034891906133a5565b60405180910390f35b34801561035d57600080fd5b506103786004803603810190610373919061325b565b610b5f565b005b34801561038657600080fd5b506103a1600480360381019061039c91906133ec565b610bec565b005b3480156103af57600080fd5b506103ca60048036038101906103c5919061325b565b610d03565b005b3480156103d857600080fd5b506103f360048036038101906103ee919061325b565b610f0c565b6040516104009190613297565b60405180910390f35b34801561041557600080fd5b50610430600480360381019061042b919061325b565b610f24565b005b34801561043e57600080fd5b506104596004803603810190610454919061325b565b61111c565b60405161046b969594939291906134a3565b60405180910390f35b34801561048057600080fd5b5061049b60048036038101906104969190613504565b611185565b005b3480156104a957600080fd5b506104b26111e5565b005b3480156104c057600080fd5b506104db60048036038101906104d69190613557565b61124d565b6040516104e891906131ca565b60405180910390f35b3480156104fd57600080fd5b5061051860048036038101906105139190613504565b6112c0565b005b34801561052657600080fd5b50610541600480360381019061053c919061325b565b6112e0565b60405161054e91906131ca565b60405180910390f35b34801561056357600080fd5b5061057e6004803603810190610579919061325b565b6112ff565b60405161058b9190613297565b60405180910390f35b3480156105a057600080fd5b506105bb60048036038101906105b691906133ec565b611317565b005b3480156105c957600080fd5b506105e460048036038101906105df919061325b565b61147c565b6040516105f191906133a5565b60405180910390f35b610614600480360381019061060f91906135aa565b611502565b005b34801561062257600080fd5b5061063d6004803603810190610638919061325b565b611989565b60405161064a91906136b9565b60405180910390f35b34801561065f57600080fd5b5061067a600480360381019061067591906136d4565b611a6f565b6040516106879190613297565b60405180910390f35b34801561069c57600080fd5b506106a5611b26565b005b3480156106b357600080fd5b506106ce60048036038101906106c9919061325b565b611b3a565b6040516106db9190613297565b60405180910390f35b3480156106f057600080fd5b5061070b6004803603810190610706919061325b565b611b52565b005b34801561071957600080fd5b50610722611bdf565b60405161072f91906133a5565b60405180910390f35b34801561074457600080fd5b5061074d611c09565b60405161075a9190613342565b60405180910390f35b34801561076f57600080fd5b5061078a6004803603810190610785919061372d565b611c9b565b005b34801561079857600080fd5b506107b360048036038101906107ae91906138a2565b611cb1565b005b3480156107c157600080fd5b506107dc60048036038101906107d7919061321b565b611d13565b005b3480156107ea57600080fd5b506108056004803603810190610800919061325b565b611d8d565b6040516108129190613342565b60405180910390f35b34801561082757600080fd5b50610842600480360381019061083d919061325b565b611efb565b60405161084f91906131ca565b60405180910390f35b34801561086457600080fd5b5061087f600480360381019061087a9190613925565b611f1b565b60405161088c91906131ca565b60405180910390f35b3480156108a157600080fd5b506108bc60048036038101906108b791906136d4565b611faf565b005b6000634906490660e01b7bffffffffffffffffffffffffffffffffffffffffffffffffffffffff1916827bffffffffffffffffffffffffffffffffffffffffffffffffffffffff19161480610918575061091782612032565b5b9050919050565b610927612114565b6000600b6000848152602001908152602001600020541461097d576040517f08c379a0000000000000000000000000000000000000000000000000000000008152600401610974906139b1565b60405180910390fd5b600081116109c0576040517f08c379a00000000000000000000000000000000000000000000000000000000081526004016109b790613a1d565b60405180910390fd5b80600b6000848152602001908152602001600020819055506001600c600084815260200190815260200160002060006101000a81548160ff021916908315150217905550817f8c12dc081f3afb7b8cf4b4eafe341721d78a8ab3e76d8e5adcaccd8ecefb3af382604051610a349190613297565b60405180910390a25050565b60116020528060005260406000206000915090505481565b600d6020528160005260406000206020528060005260406000206000915091509054906101000a900460ff1681565b606060008054610a9690613a6c565b80601f0160208091040260200160405190810160405280929190818152602001828054610ac290613a6c565b8015610b0f5780601f10610ae457610100808354040283529160200191610b0f565b820191906000526020600020905b815481529060010190602001808311610af257829003601f168201915b5050505050905090565b6000610b2482612192565b6004600083815260200190815260200160002060009054906101000a900473ffffffffffffffffffffffffffffffffffffffff169050919050565b610b67612114565b6000600b60008381526020019081526020016000205411610bbd576040517f08c379a0000000000000000000000000000000000000000000000000000000008152600401610bb490613ae9565b60405180910390fd5b6001600c600083815260200190815260200160002060006101000a81548160ff02191690831515021790555050565b6000610bf78261147c565b90508073ffffffffffffffffffffffffffffffffffffffff168373ffffffffffffffffffffffffffffffffffffffff1603610c67576040517f08c379a0000000000000000000000000000000000000000000000000000000008152600401610c5e90613b7b565b60405180910390fd5b8073ffffffffffffffffffffffffffffffffffffffff16610c866121dd565b73ffffffffffffffffffffffffffffffffffffffff161480610cb55750610cb481610caf6121dd565b611f1b565b5b610cf4576040517f08c379a0000000000000000000000000000000000000000000000000000000008152600401610ceb90613c0d565b60405180910390fd5b610cfe83836121e5565b505050565b610d0b61229e565b6000600e600083815260200190815260200160002090503373ffffffffffffffffffffffffffffffffffffffff168160000160009054906101000a900473ffffffffffffffffffffffffffffffffffffffff1673ffffffffffffffffffffffffffffffffffffffff1614610db4576040517f08c379a0000000000000000000000000000000000000000000000000000000008152600401610dab90613c79565b60405180910390fd5b60006004811115610dc857610dc761342c565b5b8160050160009054906101000a900460ff166004811115610dec57610deb61342c565b5b1480610e2d575060016004811115610e0757610e0661342c565b5b8160050160009054906101000a900460ff166004811115610e2b57610e2a61342c565b5b145b610e6c576040517f08c379a0000000000000000000000000000000000000000000000000000000008152600401610e6390613ce5565b60405180910390fd5b60028160050160006101000a81548160ff02191690836004811115610e9457610e9361342c565b5b0217905550610eb08160010154826002015483600301546122ed565b3373ffffffffffffffffffffffffffffffffffffffff16827f05eeaada89ac9092b19c582864b6f75c4796ca38f2cd2fe43f1e002be8671c586002604051610ef89190613d05565b60405180910390a350610f09612354565b50565b600b6020528060005260406000206000915090505481565b610f2c61229e565b6000600e600083815260200190815260200160002090503373ffffffffffffffffffffffffffffffffffffffff168160000160009054906101000a900473ffffffffffffffffffffffffffffffffffffffff1673ffffffffffffffffffffffffffffffffffffffff1614610fd5576040517f08c379a0000000000000000000000000000000000000000000000000000000008152600401610fcc90613c79565b60405180910390fd5b60016004811115610fe957610fe861342c565b5b8160050160009054906101000a900460ff16600481111561100d5761100c61342c565b5b1461104d576040517f08c379a000000000000000000000000000000000000000000000000000000000815260040161104490613d6c565b60405180910390fd5b80600301544211611093576040517f08c379a000000000000000000000000000000000000000000000000000000000815260040161108a90613dd8565b60405180910390fd5b60038160050160006101000a81548160ff021916908360048111156110bb576110ba61342c565b5b02179055503373ffffffffffffffffffffffffffffffffffffffff16827fcc8d29aef62db1a3527761281a725fb4454ace0682e0b6ba76f68a700f05fc3c60036040516111089190613d05565b60405180910390a350611119612354565b50565b600e6020528060005260406000206000915090508060000160009054906101000a900473ffffffffffffffffffffffffffffffffffffffff16908060010154908060020154908060030154908060040154908060050160009054906101000a900460ff16905086565b6111966111906121dd565b8261235e565b6111d5576040517f08c379a00000000000000000000000000000000000000000000000000000000081526004016111cc90613e6a565b60405180910390fd5b6111e08383836123f3565b505050565b6111ed612114565b6111f561229e565b6111fd611bdf565b73ffffffffffffffffffffffffffffffffffffffff166108fc479081150290604051600060405180830381858888f19350505050158015611242573d6000803e3d6000fd5b5061124b612354565b565b6000808390505b828110156112b357600d6000868152602001908152602001600020600082815260200190815260200160002060009054906101000a900460ff161561129d5760019150506112b9565b62015180816112ac9190613eb9565b9050611254565b50600090505b9392505050565b6112db83838360405180602001604052806000815250611cb1565b505050565b600080600b600084815260200190815260200160002054119050919050565b60106020528060005260406000206000915090505481565b61131f61229e565b3373ffffffffffffffffffffffffffffffffffffffff16600e600083815260200190815260200160002060000160009054906101000a900473ffffffffffffffffffffffffffffffffffffffff1673ffffffffffffffffffffffffffffffffffffffff16146113c3576040517f08c379a00000000000000000000000000000000000000000000000000000000081526004016113ba90613c79565b60405180910390fd5b6000600a60008154809291906113d890613eed565b9190505590506113e883826126ec565b80601060008481526020019081526020016000208190555081601160008381526020019081526020016000208190555061142a8161142583611d8d565b61270a565b8273ffffffffffffffffffffffffffffffffffffffff1681837ffca9437e237ca408a74cca23e3078fd1f6c700960dac7f09f8c6cf5177aefe1a60405160405180910390a450611478612354565b5050565b600080611488836127ae565b9050600073ffffffffffffffffffffffffffffffffffffffff168173ffffffffffffffffffffffffffffffffffffffff16036114f9576040517f08c379a00000000000000000000000000000000000000000000000000000000081526004016114f090613f81565b60405180910390fd5b80915050919050565b61150a61229e565b42831161154c576040517f08c379a000000000000000000000000000000000000000000000000000000000815260040161154390614013565b60405180910390fd5b82821161158e576040517f08c379a0000000000000000000000000000000000000000000000000000000008152600401611585906140a5565b60405180910390fd5b6000600b600086815260200190815260200160002054116115e4576040517f08c379a00000000000000000000000000000000000000000000000000000000081526004016115db90613ae9565b60405180910390fd5b600c600085815260200190815260200160002060009054906101000a900460ff16611644576040517f08c379a000000000000000000000000000000000000000000000000000000000815260040161163b90614111565b60405180910390fd5b61164f84848461124d565b1561168f576040517f08c379a0000000000000000000000000000000000000000000000000000000008152600401611686906141a3565b60405180910390fd5b600b60008581526020019081526020016000205481146116e4576040517f08c379a00000000000000000000000000000000000000000000000000000000081526004016116db90614235565b60405180910390fd5b80341015611727576040517f08c379a000000000000000000000000000000000000000000000000000000000815260040161171e906142c7565b60405180910390fd5b60006009600081548092919061173c90613eed565b91905055905034600f60008381526020019081526020016000208190555060008490505b838110156117bb576001600d6000888152602001908152602001600020600083815260200190815260200160002060006101000a81548160ff02191690831515021790555062015180816117b49190613eb9565b9050611760565b506040518060c001604052803373ffffffffffffffffffffffffffffffffffffffff1681526020018681526020018581526020018481526020018381526020016000600481111561180f5761180e61342c565b5b815250600e600083815260200190815260200160002060008201518160000160006101000a81548173ffffffffffffffffffffffffffffffffffffffff021916908373ffffffffffffffffffffffffffffffffffffffff1602179055506020820151816001015560408201518160020155606082015181600301556080820151816004015560a08201518160050160006101000a81548160ff021916908360048111156118bf576118be61342c565b5b021790555090505081341115611922573373ffffffffffffffffffffffffffffffffffffffff166108fc83346118f591906142e7565b9081150290604051600060405180830381858888f19350505050158015611920573d6000803e3d6000fd5b505b3373ffffffffffffffffffffffffffffffffffffffff16817fc2e29aacd875702915a58c9cee9f7260328cfffddf7ea293a198e4912a70c75887878787600060405161197295949392919061431b565b60405180910390a350611983612354565b50505050565b6119916130b8565b600e60008381526020019081526020016000206040518060c00160405290816000820160009054906101000a900473ffffffffffffffffffffffffffffffffffffffff1673ffffffffffffffffffffffffffffffffffffffff1673ffffffffffffffffffffffffffffffffffffffff168152602001600182015481526020016002820154815260200160038201548152602001600482015481526020016005820160009054906101000a900460ff166004811115611a5257611a5161342c565b5b6004811115611a6457611a6361342c565b5b815250509050919050565b60008073ffffffffffffffffffffffffffffffffffffffff168273ffffffffffffffffffffffffffffffffffffffff1603611adf576040517f08c379a0000000000000000000000000000000000000000000000000000000008152600401611ad6906143e0565b60405180910390fd5b600360008373ffffffffffffffffffffffffffffffffffffffff1673ffffffffffffffffffffffffffffffffffffffff168152602001908152602001600020549050919050565b611b2e612114565b611b3860006127eb565b565b600f6020528060005260406000206000915090505481565b611b5a612114565b6000600b60008381526020019081526020016000205411611bb0576040517f08c379a0000000000000000000000000000000000000000000000000000000008152600401611ba790613ae9565b60405180910390fd5b6000600c600083815260200190815260200160002060006101000a81548160ff02191690831515021790555050565b6000600760009054906101000a900473ffffffffffffffffffffffffffffffffffffffff16905090565b606060018054611c1890613a6c565b80601f0160208091040260200160405190810160405280929190818152602001828054611c4490613a6c565b8015611c915780601f10611c6657610100808354040283529160200191611c91565b820191906000526020600020905b815481529060010190602001808311611c7457829003601f168201915b5050505050905090565b611cad611ca66121dd565b83836128b1565b5050565b611cc2611cbc6121dd565b8361235e565b611d01576040517f08c379a0000000000000000000000000000000000000000000000000000000008152600401611cf890613e6a565b60405180910390fd5b611d0d84848484612a1d565b50505050565b611d1b612114565b6000600b60008481526020019081526020016000205411611d71576040517f08c379a0000000000000000000000000000000000000000000000000000000008152600401611d6890613ae9565b60405180910390fd5b80600b6000848152602001908152602001600020819055505050565b6060611d9882612a79565b611dd7576040517f08c379a0000000000000000000000000000000000000000000000000000000008152600401611dce9061444c565b60405180910390fd5b6000601160008481526020019081526020016000205490506000600e60008381526020019081526020016000206040518060c00160405290816000820160009054906101000a900473ffffffffffffffffffffffffffffffffffffffff1673ffffffffffffffffffffffffffffffffffffffff1673ffffffffffffffffffffffffffffffffffffffff168152602001600182015481526020016002820154815260200160038201548152602001600482015481526020016005820160009054906101000a900460ff166004811115611eb257611eb161342c565b5b6004811115611ec457611ec361342c565b5b815250509050611ed384612aba565b604051602001611ee39190614540565b60405160208183030381529060405292505050919050565b600c6020528060005260406000206000915054906101000a900460ff1681565b6000600560008473ffffffffffffffffffffffffffffffffffffffff1673ffffffffffffffffffffffffffffffffffffffff16815260200190815260200160002060008373ffffffffffffffffffffffffffffffffffffffff1673ffffffffffffffffffffffffffffffffffffffff16815260200190815260200160002060009054906101000a900460ff16905092915050565b611fb7612114565b600073ffffffffffffffffffffffffffffffffffffffff168173ffffffffffffffffffffffffffffffffffffffff1603612026576040517f08c379a000000000000000000000000000000000000000000000000000000000815260040161201d906145df565b60405180910390fd5b61202f816127eb565b50565b60007f80ac58cd000000000000000000000000000000000000000000000000000000007bffffffffffffffffffffffffffffffffffffffffffffffffffffffff1916827bffffffffffffffffffffffffffffffffffffffffffffffffffffffff191614806120fd57507f5b5e139f000000000000000000000000000000000000000000000000000000007bffffffffffffffffffffffffffffffffffffffffffffffffffffffff1916827bffffffffffffffffffffffffffffffffffffffffffffffffffffffff1916145b8061210d575061210c82612c20565b5b9050919050565b61211c6121dd565b73ffffffffffffffffffffffffffffffffffffffff1661213a611bdf565b73ffffffffffffffffffffffffffffffffffffffff1614612190576040517f08c379a00000000000000000000000000000000000000000000000000000000081526004016121879061464b565b60405180910390fd5b565b61219b81612a79565b6121da576040517f08c379a00000000000000000000000000000000000000000000000000000000081526004016121d190613f81565b60405180910390fd5b50565b600033905090565b816004600083815260200190815260200160002060006101000a81548173ffffffffffffffffffffffffffffffffffffffff021916908373ffffffffffffffffffffffffffffffffffffffff160217905550808273ffffffffffffffffffffffffffffffffffffffff166122588361147c565b73ffffffffffffffffffffffffffffffffffffffff167f8c5be1e5ebec7d5bd14f71427d1e84f3dd0314c0f7b2291e5b200ac8c7c3b92560405160405180910390a45050565b6002600854036122e3576040517f08c379a00000000000000000000000000000000000000000000000000000000081526004016122da906146b7565b60405180910390fd5b6002600881905550565b60008290505b8181101561234e576000600d6000868152602001908152602001600020600083815260200190815260200160002060006101000a81548160ff02191690831515021790555062015180816123479190613eb9565b90506122f3565b50505050565b6001600881905550565b60008061236a8361147c565b90508073ffffffffffffffffffffffffffffffffffffffff168473ffffffffffffffffffffffffffffffffffffffff1614806123ac57506123ab8185611f1b565b5b806123ea57508373ffffffffffffffffffffffffffffffffffffffff166123d284610b19565b73ffffffffffffffffffffffffffffffffffffffff16145b91505092915050565b8273ffffffffffffffffffffffffffffffffffffffff166124138261147c565b73ffffffffffffffffffffffffffffffffffffffff1614612469576040517f08c379a000000000000000000000000000000000000000000000000000000000815260040161246090614749565b60405180910390fd5b600073ffffffffffffffffffffffffffffffffffffffff168273ffffffffffffffffffffffffffffffffffffffff16036124d8576040517f08c379a00000000000000000000000000000000000000000000000000000000081526004016124cf906147db565b60405180910390fd5b6124e58383836001612c8a565b8273ffffffffffffffffffffffffffffffffffffffff166125058261147c565b73ffffffffffffffffffffffffffffffffffffffff161461255b576040517f08c379a000000000000000000000000000000000000000000000000000000000815260040161255290614749565b60405180910390fd5b6004600082815260200190815260200160002060006101000a81549073ffffffffffffffffffffffffffffffffffffffff02191690556001600360008573ffffffffffffffffffffffffffffffffffffffff1673ffffffffffffffffffffffffffffffffffffffff168152602001908152602001600020600082825403925050819055506001600360008473ffffffffffffffffffffffffffffffffffffffff1673ffffffffffffffffffffffffffffffffffffffff16815260200190815260200160002060008282540192505081905550816002600083815260200190815260200160002060006101000a81548173ffffffffffffffffffffffffffffffffffffffff021916908373ffffffffffffffffffffffffffffffffffffffff160217905550808273ffffffffffffffffffffffffffffffffffffffff168473ffffffffffffffffffffffffffffffffffffffff167fddf252ad1be2c89b69c2b068fc378daa952ba7f163c4a11628f55a4df523b3ef60405160405180910390a46126e78383836001612c90565b505050565b612706828260405180602001604052806000815250612c96565b5050565b61271382612a79565b612752576040517f08c379a00000000000000000000000000000000000000000000000000000000081526004016127499061486d565b60405180910390fd5b806006600084815260200190815260200160002090816127729190614a39565b507ff8e1a15aba9398e019f0b49df1a4fde98ee17ae345cb5f6b5e2c27f5033e8ce7826040516127a29190613297565b60405180910390a15050565b60006002600083815260200190815260200160002060009054906101000a900473ffffffffffffffffffffffffffffffffffffffff169050919050565b6000600760009054906101000a900473ffffffffffffffffffffffffffffffffffffffff16905081600760006101000a81548173ffffffffffffffffffffffffffffffffffffffff021916908373ffffffffffffffffffffffffffffffffffffffff1602179055508173ffffffffffffffffffffffffffffffffffffffff168173ffffffffffffffffffffffffffffffffffffffff167f8be0079c531659141344cd1fd0a4f28419497f9722a3daafe3b4186f6b6457e060405160405180910390a35050565b8173ffffffffffffffffffffffffffffffffffffffff168373ffffffffffffffffffffffffffffffffffffffff160361291f576040517f08c379a000000000000000000000000000000000000000000000000000000000815260040161291690614b57565b60405180910390fd5b80600560008573ffffffffffffffffffffffffffffffffffffffff1673ffffffffffffffffffffffffffffffffffffffff16815260200190815260200160002060008473ffffffffffffffffffffffffffffffffffffffff1673ffffffffffffffffffffffffffffffffffffffff16815260200190815260200160002060006101000a81548160ff0219169083151502179055508173ffffffffffffffffffffffffffffffffffffffff168373ffffffffffffffffffffffffffffffffffffffff167f17307eab39ab6107e8899845ad3d59bd9653f200f220920489ca2b5937696c3183604051612a1091906131ca565b60405180910390a3505050565b612a288484846123f3565b612a3484848484612cf1565b612a73576040517f08c379a0000000000000000000000000000000000000000000000000000000008152600401612a6a90614be9565b60405180910390fd5b50505050565b60008073ffffffffffffffffffffffffffffffffffffffff16612a9b836127ae565b73ffffffffffffffffffffffffffffffffffffffff1614159050919050565b606060008203612b01576040518060400160405280600181526020017f30000000000000000000000000000000000000000000000000000000000000008152509050612c1b565b600082905060005b60008214612b33578080612b1c90613eed565b915050600a82612b2c9190614c38565b9150612b09565b60008167ffffffffffffffff811115612b4f57612b4e613777565b5b6040519080825280601f01601f191660200182016040528015612b815781602001600182028036833780820191505090505b50905060008290508593505b60008414612c1357600a84612ba29190614c69565b6030612bae9190613eb9565b60f81b8282612bbc90614c9a565b92508281518110612bd057612bcf614cc3565b5b60200101907effffffffffffffffffffffffffffffffffffffffffffffffffffffffffffff1916908160001a905350600a84612c0c9190614c38565b9350612b8d565b819450505050505b919050565b60007f01ffc9a7000000000000000000000000000000000000000000000000000000007bffffffffffffffffffffffffffffffffffffffffffffffffffffffff1916827bffffffffffffffffffffffffffffffffffffffffffffffffffffffff1916149050919050565b50505050565b50505050565b612ca08383612e78565b612cad6000848484612cf1565b612cec576040517f08c379a0000000000000000000000000000000000000000000000000000000008152600401612ce390614be9565b60405180910390fd5b505050565b6000612d128473ffffffffffffffffffffffffffffffffffffffff16613095565b15612e6b578373ffffffffffffffffffffffffffffffffffffffff1663150b7a02612d3b6121dd565b8786866040518563ffffffff1660e01b8152600401612d5d9493929190614d47565b6020604051808303816000875af1925050508015612d9957506040513d601f19601f82011682018060405250810190612d969190614da8565b60015b612e1b573d8060008114612dc9576040519150601f19603f3d011682016040523d82523d6000602084013e612dce565b606091505b506000815103612e13576040517f08c379a0000000000000000000000000000000000000000000000000000000008152600401612e0a90614be9565b60405180910390fd5b805181602001fd5b63150b7a0260e01b7bffffffffffffffffffffffffffffffffffffffffffffffffffffffff1916817bffffffffffffffffffffffffffffffffffffffffffffffffffffffff191614915050612e70565b600190505b949350505050565b600073ffffffffffffffffffffffffffffffffffffffff168273ffffffffffffffffffffffffffffffffffffffff1603612ee7576040517f08c379a0000000000000000000000000000000000000000000000000000000008152600401612ede90614e21565b60405180910390fd5b612ef081612a79565b15612f30576040517f08c379a0000000000000000000000000000000000000000000000000000000008152600401612f2790614e8d565b60405180910390fd5b612f3e600083836001612c8a565b612f4781612a79565b15612f87576040517f08c379a0000000000000000000000000000000000000000000000000000000008152600401612f7e90614e8d565b60405180910390fd5b6001600360008473ffffffffffffffffffffffffffffffffffffffff1673ffffffffffffffffffffffffffffffffffffffff16815260200190815260200160002060008282540192505081905550816002600083815260200190815260200160002060006101000a81548173ffffffffffffffffffffffffffffffffffffffff021916908373ffffffffffffffffffffffffffffffffffffffff160217905550808273ffffffffffffffffffffffffffffffffffffffff16600073ffffffffffffffffffffffffffffffffffffffff167fddf252ad1be2c89b69c2b068fc378daa952ba7f163c4a11628f55a4df523b3ef60405160405180910390a4613091600083836001612c90565b5050565b6000808273ffffffffffffffffffffffffffffffffffffffff163b119050919050565b6040518060c00160405280600073ffffffffffffffffffffffffffffffffffffffff16815260200160008152602001600081526020016000815260200160008152602001600060048111156131105761310f61342c565b5b81525090565b6000604051905090565b600080fd5b600080fd5b60007fffffffff0000000000000000000000000000000000000000000000000000000082169050919050565b61315f8161312a565b811461316a57600080fd5b50565b60008135905061317c81613156565b92915050565b60006020828403121561319857613197613120565b5b60006131a68482850161316d565b91505092915050565b60008115159050919050565b6131c4816131af565b82525050565b60006020820190506131df60008301846131bb565b92915050565b6000819050919050565b6131f8816131e5565b811461320357600080fd5b50565b600081359050613215816131ef565b92915050565b6000806040838503121561323257613231613120565b5b600061324085828601613206565b925050602061325185828601613206565b9150509250929050565b60006020828403121561327157613270613120565b5b600061327f84828501613206565b91505092915050565b613291816131e5565b82525050565b60006020820190506132ac6000830184613288565b92915050565b600081519050919050565b600082825260208201905092915050565b60005b838110156132ec5780820151818401526020810190506132d1565b60008484015250505050565b6000601f19601f8301169050919050565b6000613314826132b2565b61331e81856132bd565b935061332e8185602086016132ce565b613337816132f8565b840191505092915050565b6000602082019050818103600083015261335c8184613309565b905092915050565b600073ffffffffffffffffffffffffffffffffffffffff82169050919050565b600061338f82613364565b9050919050565b61339f81613384565b82525050565b60006020820190506133ba6000830184613396565b92915050565b6133c981613384565b81146133d457600080fd5b50565b6000813590506133e6816133c0565b92915050565b6000806040838503121561340357613402613120565b5b6000613411858286016133d7565b925050602061342285828601613206565b9150509250929050565b7f4e487b7100000000000000000000000000000000000000000000000000000000600052602160045260246000fd5b6005811061346c5761346b61342c565b5b50565b600081905061347d8261345b565b919050565b600061348d8261346f565b9050919050565b61349d81613482565b82525050565b600060c0820190506134b86000830189613396565b6134c56020830188613288565b6134d26040830187613288565b6134df6060830186613288565b6134ec6080830185613288565b6134f960a0830184613494565b979650505050505050565b60008060006060848603121561351d5761351c613120565b5b600061352b868287016133d7565b935050602061353c868287016133d7565b925050604061354d86828701613206565b9150509250925092565b6000806000606084860312156135705761356f613120565b5b600061357e86828701613206565b935050602061358f86828701613206565b92505060406135a086828701613206565b9150509250925092565b600080600080608085870312156135c4576135c3613120565b5b60006135d287828801613206565b94505060206135e387828801613206565b93505060406135f487828801613206565b925050606061360587828801613206565b91505092959194509250565b61361a81613384565b82525050565b613629816131e5565b82525050565b61363881613482565b82525050565b60c0820160008201516136546000850182613611565b5060208201516136676020850182613620565b50604082015161367a6040850182613620565b50606082015161368d6060850182613620565b5060808201516136a06080850182613620565b5060a08201516136b360a085018261362f565b50505050565b600060c0820190506136ce600083018461363e565b92915050565b6000602082840312156136ea576136e9613120565b5b60006136f8848285016133d7565b91505092915050565b61370a816131af565b811461371557600080fd5b50565b60008135905061372781613701565b92915050565b6000806040838503121561374457613743613120565b5b6000613752858286016133d7565b925050602061376385828601613718565b9150509250929050565b600080fd5b600080fd5b7f4e487b7100000000000000000000000000000000000000000000000000000000600052604160045260246000fd5b6137af826132f8565b810181811067ffffffffffffffff821117156137ce576137cd613777565b5b80604052505050565b60006137e1613116565b90506137ed82826137a6565b919050565b600067ffffffffffffffff82111561380d5761380c613777565b5b613816826132f8565b9050602081019050919050565b82818337600083830152505050565b6000613845613840846137f2565b6137d7565b90508281526020810184848401111561386157613860613772565b5b61386c848285613823565b509392505050565b600082601f8301126138895761388861376d565b5b8135613899848260208601613832565b91505092915050565b600080600080608085870312156138bc576138bb613120565b5b60006138ca878288016133d7565b94505060206138db878288016133d7565b93505060406138ec87828801613206565b925050606085013567ffffffffffffffff81111561390d5761390c613125565b5b61391987828801613874565b91505092959194509250565b6000806040838503121561393c5761393b613120565b5b600061394a858286016133d7565b925050602061395b858286016133d7565b9150509250929050565b7f50726f706572747920616c726561647920657869737473000000000000000000600082015250565b600061399b6017836132bd565b91506139a682613965565b602082019050919050565b600060208201905081810360008301526139ca8161398e565b9050919050565b7f5072696365206d7573742062652067726561746572207468616e203000000000600082015250565b6000613a07601c836132bd565b9150613a12826139d1565b602082019050919050565b60006020820190508181036000830152613a36816139fa565b9050919050565b7f4e487b7100000000000000000000000000000000000000000000000000000000600052602260045260246000fd5b60006002820490506001821680613a8457607f821691505b602082108103613a9757613a96613a3d565b5b50919050565b7f50726f706572747920646f6573206e6f74206578697374000000000000000000600082015250565b6000613ad36017836132bd565b9150613ade82613a9d565b602082019050919050565b60006020820190508181036000830152613b0281613ac6565b9050919050565b7f4552433732313a20617070726f76616c20746f2063757272656e74206f776e6560008201527f7200000000000000000000000000000000000000000000000000000000000000602082015250565b6000613b656021836132bd565b9150613b7082613b09565b604082019050919050565b60006020820190508181036000830152613b9481613b58565b9050919050565b7f4552433732313a20617070726f76652063616c6c6572206973206e6f7420746f60008201527f6b656e206f776e6572206f7220617070726f76656420666f7220616c6c000000602082015250565b6000613bf7603d836132bd565b9150613c0282613b9b565b604082019050919050565b60006020820190508181036000830152613c2681613bea565b9050919050565b7f4e6f7420626f6f6b696e67206f776e6572000000000000000000000000000000600082015250565b6000613c636011836132bd565b9150613c6e82613c2d565b602082019050919050565b60006020820190508181036000830152613c9281613c56565b9050919050565b7f43616e6e6f742063616e63656c207468697320626f6f6b696e67000000000000600082015250565b6000613ccf601a836132bd565b9150613cda82613c99565b602082019050919050565b60006020820190508181036000830152613cfe81613cc2565b9050919050565b6000602082019050613d1a6000830184613494565b92915050565b7f43616e6e6f7420636f6d706c657465207468697320626f6f6b696e6700000000600082015250565b6000613d56601c836132bd565b9150613d6182613d20565b602082019050919050565b60006020820190508181036000830152613d8581613d49565b9050919050565b7f426f6f6b696e6720686173206e6f7420656e6465642079657400000000000000600082015250565b6000613dc26019836132bd565b9150613dcd82613d8c565b602082019050919050565b60006020820190508181036000830152613df181613db5565b9050919050565b7f4552433732313a2063616c6c6572206973206e6f7420746f6b656e206f776e6560008201527f72206f7220617070726f76656400000000000000000000000000000000000000602082015250565b6000613e54602d836132bd565b9150613e5f82613df8565b604082019050919050565b60006020820190508181036000830152613e8381613e47565b9050919050565b7f4e487b7100000000000000000000000000000000000000000000000000000000600052601160045260246000fd5b6000613ec4826131e5565b9150613ecf836131e5565b9250828201905080821115613ee757613ee6613e8a565b5b92915050565b6000613ef8826131e5565b91507fffffffffffffffffffffffffffffffffffffffffffffffffffffffffffffffff8203613f2a57613f29613e8a565b5b600182019050919050565b7f4552433732313a20696e76616c696420746f6b656e2049440000000000000000600082015250565b6000613f6b6018836132bd565b9150613f7682613f35565b602082019050919050565b60006020820190508181036000830152613f9a81613f5e565b9050919050565b7f53746172742064617465206d7573742062652061667465722063757272656e7460008201527f20626c6f636b2074696d65000000000000000000000000000000000000000000602082015250565b6000613ffd602b836132bd565b915061400882613fa1565b604082019050919050565b6000602082019050818103600083015261402c81613ff0565b9050919050565b7f456e642064617465206d7573742062652061667465722073746172742064617460008201527f6500000000000000000000000000000000000000000000000000000000000000602082015250565b600061408f6021836132bd565b915061409a82614033565b604082019050919050565b600060208201905081810360008301526140be81614082565b9050919050565b7f50726f7065727479206973206e6f742061637469766500000000000000000000600082015250565b60006140fb6016836132bd565b9150614106826140c5565b602082019050919050565b6000602082019050818103600083015261412a816140ee565b9050919050565b7f426f6f6b696e672074696d65206f7665726c617073207769746820657869737460008201527f696e67206f6e6500000000000000000000000000000000000000000000000000602082015250565b600061418d6027836132bd565b915061419882614131565b604082019050919050565b600060208201905081810360008301526141bc81614180565b9050919050565b7f426f6f6b696e6720616d6f756e7420646f6573206e6f74206d6174636820707260008201527f6f70657274792070726963650000000000000000000000000000000000000000602082015250565b600061421f602c836132bd565b915061422a826141c3565b604082019050919050565b6000602082019050818103600083015261424e81614212565b9050919050565b7f53656e742076616c7565206973206c657373207468616e20626f6f6b696e672060008201527f616d6f756e740000000000000000000000000000000000000000000000000000602082015250565b60006142b16026836132bd565b91506142bc82614255565b604082019050919050565b600060208201905081810360008301526142e0816142a4565b9050919050565b60006142f2826131e5565b91506142fd836131e5565b925082820390508181111561431557614314613e8a565b5b92915050565b600060a0820190506143306000830188613288565b61433d6020830187613288565b61434a6040830186613288565b6143576060830185613288565b6143646080830184613494565b9695505050505050565b7f4552433732313a2061646472657373207a65726f206973206e6f74206120766160008201527f6c6964206f776e65720000000000000000000000000000000000000000000000602082015250565b60006143ca6029836132bd565b91506143d58261436e565b604082019050919050565b600060208201905081810360008301526143f9816143bd565b9050919050565b7f4e465420646f6573206e6f742065786973740000000000000000000000000000600082015250565b60006144366012836132bd565b915061444182614400565b602082019050919050565b6000602082019050818103600083015261446581614429565b9050919050565b600081905092915050565b7f697066733a2f2f516d58595a2f6d657461646174615f00000000000000000000600082015250565b60006144ad60168361446c565b91506144b882614477565b601682019050919050565b60006144ce826132b2565b6144d8818561446c565b93506144e88185602086016132ce565b80840191505092915050565b7f2e6a736f6e000000000000000000000000000000000000000000000000000000600082015250565b600061452a60058361446c565b9150614535826144f4565b600582019050919050565b600061454b826144a0565b915061455782846144c3565b91506145628261451d565b915081905092915050565b7f4f776e61626c653a206e6577206f776e657220697320746865207a65726f206160008201527f6464726573730000000000000000000000000000000000000000000000000000602082015250565b60006145c96026836132bd565b91506145d48261456d565b604082019050919050565b600060208201905081810360008301526145f8816145bc565b9050919050565b7f4f776e61626c653a2063616c6c6572206973206e6f7420746865206f776e6572600082015250565b60006146356020836132bd565b9150614640826145ff565b602082019050919050565b6000602082019050818103600083015261466481614628565b9050919050565b7f5265656e7472616e637947756172643a207265656e7472616e742063616c6c00600082015250565b60006146a1601f836132bd565b91506146ac8261466b565b602082019050919050565b600060208201905081810360008301526146d081614694565b9050919050565b7f4552433732313a207472616e736665722066726f6d20696e636f72726563742060008201527f6f776e6572000000000000000000000000000000000000000000000000000000602082015250565b60006147336025836132bd565b915061473e826146d7565b604082019050919050565b6000602082019050818103600083015261476281614726565b9050919050565b7f4552433732313a207472616e7366657220746f20746865207a65726f2061646460008201527f7265737300000000000000000000000000000000000000000000000000000000602082015250565b60006147c56024836132bd565b91506147d082614769565b604082019050919050565b600060208201905081810360008301526147f4816147b8565b9050919050565b7f45524337323155524953746f726167653a2055524920736574206f66206e6f6e60008201527f6578697374656e7420746f6b656e000000000000000000000000000000000000602082015250565b6000614857602e836132bd565b9150614862826147fb565b604082019050919050565b600060208201905081810360008301526148868161484a565b9050919050565b60008190508160005260206000209050919050565b60006020601f8301049050919050565b600082821b905092915050565b6000600883026148ef7fffffffffffffffffffffffffffffffffffffffffffffffffffffffffffffffff826148b2565b6148f986836148b2565b95508019841693508086168417925050509392505050565b6000819050919050565b600061493661493161492c846131e5565b614911565b6131e5565b9050919050565b6000819050919050565b6149508361491b565b61496461495c8261493d565b8484546148bf565b825550505050565b600090565b61497961496c565b614984818484614947565b505050565b5b818110156149a85761499d600082614971565b60018101905061498a565b5050565b601f8211156149ed576149be8161488d565b6149c7846148a2565b810160208510156149d6578190505b6149ea6149e2856148a2565b830182614989565b50505b505050565b600082821c905092915050565b6000614a10600019846008026149f2565b1980831691505092915050565b6000614a2983836149ff565b9150826002028217905092915050565b614a42826132b2565b67ffffffffffffffff811115614a5b57614a5a613777565b5b614a658254613a6c565b614a708282856149ac565b600060209050601f831160018114614aa35760008415614a91578287015190505b614a9b8582614a1d565b865550614b03565b601f198416614ab18661488d565b60005b82811015614ad957848901518255600182019150602085019450602081019050614ab4565b86831015614af65784890151614af2601f8916826149ff565b8355505b6001600288020188555050505b505050505050565b7f4552433732313a20617070726f766520746f2063616c6c657200000000000000600082015250565b6000614b416019836132bd565b9150614b4c82614b0b565b602082019050919050565b60006020820190508181036000830152614b7081614b34565b9050919050565b7f4552433732313a207472616e7366657220746f206e6f6e20455243373231526560008201527f63656976657220696d706c656d656e7465720000000000000000000000000000602082015250565b6000614bd36032836132bd565b9150614bde82614b77565b604082019050919050565b60006020820190508181036000830152614c0281614bc6565b9050919050565b7f4e487b7100000000000000000000000000000000000000000000000000000000600052601260045260246000fd5b6000614c43826131e5565b9150614c4e836131e5565b925082614c5e57614c5d614c09565b5b828204905092915050565b6000614c74826131e5565b9150614c7f836131e5565b925082614c8f57614c8e614c09565b5b828206905092915050565b6000614ca5826131e5565b915060008203614cb857614cb7613e8a565b5b600182039050919050565b7f4e487b7100000000000000000000000000000000000000000000000000000000600052603260045260246000fd5b600081519050919050565b600082825260208201905092915050565b6000614d1982614cf2565b614d238185614cfd565b9350614d338185602086016132ce565b614d3c816132f8565b840191505092915050565b6000608082019050614d5c6000830187613396565b614d696020830186613396565b614d766040830185613288565b8181036060830152614d888184614d0e565b905095945050505050565b600081519050614da281613156565b92915050565b600060208284031215614dbe57614dbd613120565b5b6000614dcc84828501614d93565b91505092915050565b7f4552433732313a206d696e7420746f20746865207a65726f2061646472657373600082015250565b6000614e0b6020836132bd565b9150614e1682614dd5565b602082019050919050565b60006020820190508181036000830152614e3a81614dfe565b9050919050565b7f4552433732313a20746f6b656e20616c7265616479206d696e74656400000000600082015250565b6000614e77601c836132bd565b9150614e8282614e41565b602082019050919050565b60006020820190508181036000830152614ea681614e6a565b905091905056fea2646970667358221220be43fdd27feedd2cb477d4a242338ef4564e4c3e7000bb8027c67355cc46dfb064736f6c63430008140033",
  "linkReferences": {},
  "deployedLinkReferences": {}
}